{
  "address": "0xCf7Ed3AccA5a467e9e704C703E8D87F634fB0Fc9",
  "abi": [
    {
      "inputs": [],
      "name": "AccessControlBadConfirmation",
      "type": "error"
    },
    {
      "inputs": [
        {
          "internalType": "address",
          "name": "account",
          "type": "address"
        },
        {
          "internalType": "bytes32",
          "name": "neededRole",
          "type": "bytes32"
        }
      ],
      "name": "AccessControlUnauthorizedAccount",
      "type": "error"
    },
    {
      "inputs": [],
      "name": "InvalidInitialization",
      "type": "error"
    },
    {
      "inputs": [],
      "name": "NotInitializing",
      "type": "error"
    },
    {
      "anonymous": false,
      "inputs": [
        {
          "indexed": false,
          "internalType": "uint64",
          "name": "version",
          "type": "uint64"
        }
      ],
      "name": "Initialized",
      "type": "event"
    },
    {
      "anonymous": false,
      "inputs": [
        {
          "indexed": true,
          "internalType": "address",
          "name": "proxy",
          "type": "address"
        },
        {
          "indexed": false,
          "internalType": "address",
          "name": "singleton",
          "type": "address"
        }
      ],
      "name": "ProxyCreation",
      "type": "event"
    },
    {
      "anonymous": false,
      "inputs": [
        {
          "indexed": true,
          "internalType": "bytes32",
          "name": "role",
          "type": "bytes32"
        },
        {
          "indexed": true,
          "internalType": "bytes32",
          "name": "previousAdminRole",
          "type": "bytes32"
        },
        {
          "indexed": true,
          "internalType": "bytes32",
          "name": "newAdminRole",
          "type": "bytes32"
        }
      ],
      "name": "RoleAdminChanged",
      "type": "event"
    },
    {
      "anonymous": false,
      "inputs": [
        {
          "indexed": true,
          "internalType": "bytes32",
          "name": "role",
          "type": "bytes32"
        },
        {
          "indexed": true,
          "internalType": "address",
          "name": "account",
          "type": "address"
        },
        {
          "indexed": true,
          "internalType": "address",
          "name": "sender",
          "type": "address"
        }
      ],
      "name": "RoleGranted",
      "type": "event"
    },
    {
      "anonymous": false,
      "inputs": [
        {
          "indexed": true,
          "internalType": "bytes32",
          "name": "role",
          "type": "bytes32"
        },
        {
          "indexed": true,
          "internalType": "address",
          "name": "account",
          "type": "address"
        },
        {
          "indexed": true,
          "internalType": "address",
          "name": "sender",
          "type": "address"
        }
      ],
      "name": "RoleRevoked",
      "type": "event"
    },
    {
      "inputs": [],
      "name": "DEFAULT_ADMIN_ROLE",
      "outputs": [
        {
          "internalType": "bytes32",
          "name": "",
          "type": "bytes32"
        }
      ],
      "stateMutability": "view",
      "type": "function"
    },
    {
      "inputs": [
        {
          "internalType": "address",
          "name": "_singletonVault",
          "type": "address"
        }
      ],
      "name": "changeSingletonVault",
      "outputs": [],
      "stateMutability": "nonpayable",
      "type": "function"
    },
    {
      "inputs": [
        {
          "internalType": "address",
          "name": "_sponsor",
          "type": "address"
        },
        {
          "internalType": "address",
          "name": "_tokenPayout",
          "type": "address"
        },
        {
          "internalType": "uint256",
          "name": "_totalPayout",
          "type": "uint256"
        },
        {
          "internalType": "address",
          "name": "_manager",
          "type": "address"
        },
        {
          "internalType": "bytes32",
          "name": "_salt",
          "type": "bytes32"
        }
      ],
      "name": "deploy",
      "outputs": [
        {
          "internalType": "address",
          "name": "proxy",
          "type": "address"
        }
      ],
      "stateMutability": "nonpayable",
      "type": "function"
    },
    {
      "inputs": [
        {
          "internalType": "bytes",
          "name": "_initializer",
          "type": "bytes"
        },
        {
          "internalType": "bytes32",
          "name": "_salt",
          "type": "bytes32"
        }
      ],
      "name": "getAddress",
      "outputs": [
        {
          "internalType": "address",
          "name": "account",
          "type": "address"
        }
      ],
      "stateMutability": "view",
      "type": "function"
    },
    {
      "inputs": [
        {
          "internalType": "bytes32",
          "name": "role",
          "type": "bytes32"
        }
      ],
      "name": "getRoleAdmin",
      "outputs": [
        {
          "internalType": "bytes32",
          "name": "",
          "type": "bytes32"
        }
      ],
      "stateMutability": "view",
      "type": "function"
    },
    {
      "inputs": [
        {
          "internalType": "bytes32",
          "name": "role",
          "type": "bytes32"
        },
        {
          "internalType": "address",
          "name": "account",
          "type": "address"
        }
      ],
      "name": "grantRole",
      "outputs": [],
      "stateMutability": "nonpayable",
      "type": "function"
    },
    {
      "inputs": [
        {
          "internalType": "bytes32",
          "name": "role",
          "type": "bytes32"
        },
        {
          "internalType": "address",
          "name": "account",
          "type": "address"
        }
      ],
      "name": "hasRole",
      "outputs": [
        {
          "internalType": "bool",
          "name": "",
          "type": "bool"
        }
      ],
      "stateMutability": "view",
      "type": "function"
    },
    {
      "inputs": [
        {
          "internalType": "address",
          "name": "_singletonVault",
          "type": "address"
        }
      ],
      "name": "initialize",
      "outputs": [],
      "stateMutability": "nonpayable",
      "type": "function"
    },
    {
      "inputs": [
        {
          "internalType": "bytes32",
          "name": "role",
          "type": "bytes32"
        },
        {
          "internalType": "address",
          "name": "callerConfirmation",
          "type": "address"
        }
      ],
      "name": "renounceRole",
      "outputs": [],
      "stateMutability": "nonpayable",
      "type": "function"
    },
    {
      "inputs": [
        {
          "internalType": "bytes32",
          "name": "role",
          "type": "bytes32"
        },
        {
          "internalType": "address",
          "name": "account",
          "type": "address"
        }
      ],
      "name": "revokeRole",
      "outputs": [],
      "stateMutability": "nonpayable",
      "type": "function"
    },
    {
      "inputs": [],
      "name": "singletonVault",
      "outputs": [
        {
          "internalType": "address",
          "name": "",
          "type": "address"
        }
      ],
      "stateMutability": "view",
      "type": "function"
    },
    {
      "inputs": [
        {
          "internalType": "bytes4",
          "name": "interfaceId",
          "type": "bytes4"
        }
      ],
      "name": "supportsInterface",
      "outputs": [
        {
          "internalType": "bool",
          "name": "",
          "type": "bool"
        }
      ],
      "stateMutability": "view",
      "type": "function"
    }
  ],
  "transactionHash": "0xad42043b67bfd6f8445a85dd22823db75d7d091ab3f1b51d9ee7da63472bb6a1",
  "args": [],
  "numDeployments": 1,
  "solcInputHash": "9245f9cfaceb4829e2acc507ead94a2f",
  "bytecode": "0x60806040523461001a57604051611274610020823961127490f35b600080fdfe608060405260043610156200001357600080fd5b60003560e01c806301ffc9a714620000ea578063248a9ca314620000e45780632f2ff15d14620000de57806336568abe14620000d857806348aac39214620000d257806370b56f0c14620000cc57806391d1485414620000c657806397407d6c14620000c0578063a217fddf14620000ba578063c4d66de814620000b4578063d547741f14620000ae5763fcc8025a03620001045762000541565b620004f4565b620004d7565b620004b6565b6200045f565b620003e6565b620003c9565b62000375565b62000243565b62000220565b6200019c565b62000138565b6001600160e01b031981165b036200010457565b600080fd5b905035906200011882620000f0565b565b906020828203126200010457620001319162000109565b90565b9052565b3462000104576200016b62000159620001533660046200011a565b62000562565b60405191829182901515815260200190565b0390f35b80620000fc565b9050359062000118826200016f565b906020828203126200010457620001319162000176565b3462000104576200016b620001bd620001b736600462000185565b620005bb565b6040519182918290815260200190565b6001600160a01b031690565b6001600160a01b038116620000fc565b905035906200011882620001d9565b91906040838203126200010457620001319062000216818562000176565b93602001620001e9565b3462000104576200023e62000237366004620001f8565b906200061b565b604051005b3462000104576200023e6200025a366004620001f8565b9062000627565b634e487b7160e01b600052604160045260246000fd5b90601f01601f1916810190811067ffffffffffffffff8211176200029a57604052565b62000261565b9062000118620002af60405190565b928362000277565b67ffffffffffffffff81116200029a57602090601f01601f19160190565b0190565b90826000939282370152565b90929192620002fe620002f882620002b7565b620002a0565b9381855260208501908284011162000104576200011892620002d9565b9080601f8301121562000104578160206200013193359101620002e5565b9190604083820312620001045782359067ffffffffffffffff821162000104576200036b81620001319386016200031b565b9360200162000176565b3462000104576200016b620003976200039036600462000339565b9062000785565b6040515b918291826001600160a01b03909116815260200190565b9060208282031262000104576200013191620001e9565b3462000104576200023e620003e0366004620003b2565b6200095e565b3462000104576200016b6200015962000401366004620001f8565b90620009af565b919060a0838203126200010457620004218184620001e9565b92620004318260208301620001e9565b926200013162000445846040850162000176565b93620004558160608601620001e9565b9360800162000176565b3462000104576200016b620003976200047a36600462000408565b9392909262000a3a565b60009103126200010457565b6200013162000131620001319290565b62000131600062000490565b62000131620004a0565b346200010457620004c936600462000484565b6200016b620001bd620004ac565b3462000104576200023e620004ee366004620003b2565b62000dbd565b3462000104576200023e6200050b366004620001f8565b9062000de9565b62000131916008021c6001600160a01b031690565b9062000131915462000512565b6200013160008062000527565b3462000104576200055436600462000484565b6200016b6200039762000534565b806200057e637965db0b60e01b5b916001600160e01b03191690565b149081156200058b575090565b62000131915062000df5565b905b600052602052604060002090565b620001319081565b620001319054620005a7565b6001620005ea6200013192620005cf600090565b506000600080516020620012488339815191525b0162000597565b01620005af565b9062000118916200060c6200060682620005bb565b62000e0b565b90620006189162000e3d565b50565b906200011891620005f1565b9080620006456200063833620001cd565b916001600160a01b031690565b036200065657620006189162000ee5565b60405163334bd91960e11b8152600490fd5b0390fd5b6200013190620001cd565b6200013190546200066c565b6200013190620001cd906001600160a01b031682565b620001319062000683565b620001319081906001600160a01b031681565b60005b838110620006cb5750506000910152565b8181015183820152602001620006ba565b620002d5620006f792602092620006f1815190565b94859290565b93849101620006b7565b62000714620002d59160209493620006dc565b918252565b01918252565b620007356200072f620001319290565b60f81b90565b6001600160f81b03191690565b620001319062000699565b62000134906001600160a01b031660601b90565b0180926200074d565b620001319062000490565b620001cd62000131620001319290565b620008dd620007db91620008c96200013194620007a0600090565b506200085161019f620007b660208201620002a0565b90808252620010a9602083013962000813620007e7620007e1620007db600062000677565b62000699565b620006a4565b9162000803620007f660405190565b9384926020840162000701565b6020820181038252038262000277565b936200082862000821825190565b9160200190565b20620008036200083760405190565b9384926020840160208162000719620002d5938396959052565b6200085e62000821825190565b2091620008036200087060ff6200071f565b916200087c3062000742565b94906200088b62000821825190565b20906200089760405190565b9586946020860192620007196014620002d594620007196001886200076160209b9a8c996001600160f81b0319169052565b620008d662000821825190565b206200076a565b62000775565b15620008eb57565b60405162461bcd60e51b815260206004820152601660248201527521b0b63632b91034b9903737ba1030b71030b236b4b760511b6044820152606490fd5b906001600160a01b03905b9181191691161790565b9062000952620001316200095a9262000742565b825462000929565b9055565b6200011890620009836200097d62000975620004a0565b3390620009af565b620008e3565b60006200093e565b90620005999062000742565b62000131905b60ff1690565b62000131905462000997565b62000131916000620009e0620009e793620009c8600090565b508260008051602062001248833981519152620005e3565b016200098b565b620009a3565b620001319062000775565b1562000a0057565b60405162461bcd60e51b815260206004820152601260248201527110dc99585d194818d85b1b0819985a5b195960721b6044820152606490fd5b949362000ac19391929062000a566200097d62000975620004a0565b61019f62000a6760208201620002a0565b90808252620010a9602083013962000a8c620007e7620007e1620007db600062000677565b8051906020016000f59562000ab78762000aaf62000638620001cd6000620009ed565b1415620009f8565b9290919262000faa565b805162000ad762000ad3600062000490565b9190565b1162000b2d575b508162000aec600062000677565b9062000b2862000b1d7f4f51faf6c4561ff95f067657e43439f0f856d97c04d9ec9070a6199ad418e2359262000742565b926200039b60405190565b0390a2565b600080826020829451910182875af11462000104573862000ade565b620001319060401c6200099d565b62000131905462000b49565b62000131905b67ffffffffffffffff1690565b62000131905462000b63565b62000b6962000131620001319290565b9067ffffffffffffffff9062000934565b62000b6962000131620001319267ffffffffffffffff1690565b9062000bd1620001316200095a9262000ba3565b825462000b92565b9068ff00000000000000009060401b62000934565b9062000c01620001316200095a92151590565b825462000bd9565b620001349062000b82565b60208101929162000118919062000c09565b7ff0c57e16840df040f15088dc2f81fe391c3923bec73e23a9662efc9c229c6a009062000c5b62000c578362000b57565b1590565b9062000c678362000b76565b8062000c8662000c78600062000b82565b9167ffffffffffffffff1690565b148062000d90575b9062000c9f62000c78600162000b82565b148062000d66575b90155b908162000d5c575b5062000d4a5762000ce09062000cd462000ccd600162000b82565b8562000bbd565b8262000d375762000d98565b62000ce85750565b62000cf69060009062000bee565b600162000d327fc7f505b2f371ae2175ee4913f4499e1f2633a7b5936321eed1cdaeb6115181d29162000d2860405190565b9182918262000c14565b0390a1565b62000d4460018562000bee565b62000d98565b60405163f92ee8a960e01b8152600490fd5b1590503862000cb2565b5062000caa62000d763062000742565b3b62000d8762000ad3600062000490565b14905062000ca7565b508262000c8e565b62000da7906200098362000fef565b6200061862000db5620004a0565b339062000e3d565b620001189062000c26565b90620001189162000ddd6200060682620005bb565b90620006189162000ee5565b90620001189162000dc8565b62000e076301ffc9a760e01b62000570565b1490565b6200011890339062001017565b9060ff9062000934565b9062000e35620001316200095a92151590565b825462000e18565b6000805160206200124883398151915262000e5d62000c578484620009af565b1562000edd5762000e8e9062000e88600062000e7f8160019401869062000597565b0185906200098b565b62000e22565b90339062000ec962000ec262000ec27f2f8788117e7eff1d82e926ec794901d17c78024a50270940304540a733656f0d9590565b9262000742565b9262000ed460405190565b600090a4600190565b505050600090565b6000805160206200124883398151915262000f018383620009af565b1562000edd5762000f229062000e88600062000e7f81809401869062000597565b90339062000ec962000ec262000ec27ff6391f5c32d9c69d2a47ea670b442974b53935d1edc7fd64eb21e047a839171b9590565b62000f9b620001189462000f9460609498979562000f84608086019a60008701906001600160a01b03169052565b6001600160a01b03166020850152565b6040830152565b01906001600160a01b03169052565b620001319293620008039162000fbe606090565b50929462000fcb60405190565b632f880c2560e21b60208201529586946024860162000f56565b6200011862001056565b6200011862000fe5565b6001600160a01b039091168152604081019291620001189160200152565b906200102862000c578284620009af565b62001031575050565b620006686200103f60405190565b63e2517d3f60e01b81529283926004840162000ff9565b6200106462000c576200107d565b6200106b57565b604051631afcd79f60e31b8152600490fd5b620001317ff0c57e16840df040f15088dc2f81fe391c3923bec73e23a9662efc9c229c6a0062000b5756fe608060405234610028576100196100146100c0565b610140565b604051603261016d8239603290f35b600080fd5b634e487b7160e01b600052604160045260246000fd5b90601f01601f191681019081106001600160401b0382111761006457604052565b61002d565b9061007d61007660405190565b9283610043565b565b6001600160a01b031690565b90565b6001600160a01b0381160361002857565b9050519061007d8261008e565b906020828203126100285761008b9161009f565b61008b61019f803803806100d381610069565b9283398101906100ac565b61007f61008b61008b9290565b61008b906100de565b156100fb57565b60405162461bcd60e51b815260206004820152601e60248201527f496e76616c696420696d706c656d656e746174696f6e206164647265737300006044820152606490fd5b6101688161016161015461007f60006100eb565b916001600160a01b031690565b14156100f4565b305556fe60806040526000803054368280378136915af43d6000803e156020573d6000f35b3d6000fdfea164736f6c6343000818000a02dd7bc7dec4dceedda775e58dd541e08a116c6c53815c0bd028192f7b626800a164736f6c6343000818000a",
  "devdoc": {
    "errors": {
      "AccessControlBadConfirmation()": [
        {
          "details": "The caller of a function is not the expected one. NOTE: Don't confuse with {AccessControlUnauthorizedAccount}."
        }
      ],
      "AccessControlUnauthorizedAccount(address,bytes32)": [
        {
          "details": "The `account` is missing a role."
        }
      ],
      "InvalidInitialization()": [
        {
          "details": "The contract is already initialized."
        }
      ],
      "NotInitializing()": [
        {
          "details": "The contract is not initializing."
        }
      ]
    },
    "events": {
      "Initialized(uint64)": {
        "details": "Triggered when the contract has been initialized or reinitialized."
      },
      "RoleAdminChanged(bytes32,bytes32,bytes32)": {
        "details": "Emitted when `newAdminRole` is set as ``role``'s admin role, replacing `previousAdminRole` `DEFAULT_ADMIN_ROLE` is the starting admin for all roles, despite {RoleAdminChanged} not being emitted signaling this."
      },
      "RoleGranted(bytes32,address,address)": {
        "details": "Emitted when `account` is granted `role`. `sender` is the account that originated the contract call. This account bears the admin role (for the granted role). Expected in cases where the role was granted using the internal {AccessControl-_grantRole}."
      },
      "RoleRevoked(bytes32,address,address)": {
        "details": "Emitted when `account` is revoked `role`. `sender` is the account that originated the contract call:   - if using `revokeRole`, it is the admin role bearer   - if using `renounceRole`, it is the role bearer (i.e. `account`)"
      }
    },
    "kind": "dev",
    "methods": {
      "getRoleAdmin(bytes32)": {
        "details": "Returns the admin role that controls `role`. See {grantRole} and {revokeRole}. To change a role's admin, use {_setRoleAdmin}."
      },
      "grantRole(bytes32,address)": {
        "details": "Grants `role` to `account`. If `account` had not been already granted `role`, emits a {RoleGranted} event. Requirements: - the caller must have ``role``'s admin role. May emit a {RoleGranted} event."
      },
      "hasRole(bytes32,address)": {
        "details": "Returns `true` if `account` has been granted `role`."
      },
      "renounceRole(bytes32,address)": {
        "details": "Revokes `role` from the calling account. Roles are often managed via {grantRole} and {revokeRole}: this function's purpose is to provide a mechanism for accounts to lose their privileges if they are compromised (such as when a trusted device is misplaced). If the calling account had been revoked `role`, emits a {RoleRevoked} event. Requirements: - the caller must be `callerConfirmation`. May emit a {RoleRevoked} event."
      },
      "revokeRole(bytes32,address)": {
        "details": "Revokes `role` from `account`. If `account` had been granted `role`, emits a {RoleRevoked} event. Requirements: - the caller must have ``role``'s admin role. May emit a {RoleRevoked} event."
      },
      "supportsInterface(bytes4)": {
        "details": "See {IERC165-supportsInterface}."
      }
    },
    "version": 1
  },
  "userdoc": {
    "kind": "user",
    "methods": {},
    "version": 1
  },
  "storageLayout": {
    "storage": [
      {
        "astId": 1609,
        "contract": "contracts/CenticVauiltFactory.sol:CenticVaultFactory",
        "label": "singletonVault",
        "offset": 0,
        "slot": "0",
        "type": "t_address"
      }
    ],
    "types": {
      "t_address": {
        "encoding": "inplace",
        "label": "address",
        "numberOfBytes": "20"
      }
    }
  }
}