{
  "address": "0xe44A3cfaFbEEfa780674CE4D152Ad2e3ca3d0Ee2",
  "abi": [
    {
      "inputs": [],
      "name": "DuplicatedOffer",
      "type": "error"
    },
    {
      "inputs": [],
      "name": "InvalidInitialization",
      "type": "error"
    },
    {
      "inputs": [],
      "name": "NotInitializing",
      "type": "error"
    },
    {
      "inputs": [],
      "name": "OnlyManager",
      "type": "error"
    },
    {
      "inputs": [],
      "name": "OnlySponsor",
      "type": "error"
    },
    {
      "inputs": [],
      "name": "ReentrancyGuardReentrantCall",
      "type": "error"
    },
    {
      "inputs": [
        {
          "internalType": "address",
          "name": "token",
          "type": "address"
        }
      ],
      "name": "SafeERC20FailedOperation",
      "type": "error"
    },
    {
      "anonymous": false,
      "inputs": [
        {
          "indexed": true,
          "internalType": "address",
          "name": "member",
          "type": "address"
        }
      ],
      "name": "AddMember",
      "type": "event"
    },
    {
      "anonymous": false,
      "inputs": [
        {
          "indexed": false,
          "internalType": "uint64",
          "name": "version",
          "type": "uint64"
        }
      ],
      "name": "Initialized",
      "type": "event"
    },
    {
      "anonymous": false,
      "inputs": [
        {
          "components": [
            {
              "internalType": "string",
              "name": "description",
              "type": "string"
            },
            {
              "internalType": "address",
              "name": "member",
              "type": "address"
            },
            {
              "internalType": "address",
              "name": "tokenPayout",
              "type": "address"
            },
            {
              "internalType": "uint256",
              "name": "amountPayout",
              "type": "uint256"
            },
            {
              "internalType": "uint256",
              "name": "deadline",
              "type": "uint256"
            },
            {
              "internalType": "enum ICenticVault.Status",
              "name": "status",
              "type": "uint8"
            }
          ],
          "indexed": true,
          "internalType": "struct ICenticVault.Offer",
          "name": "offer",
          "type": "tuple"
        }
      ],
      "name": "UpdateOffer",
      "type": "event"
    },
    {
      "inputs": [],
      "name": "VERSION",
      "outputs": [
        {
          "internalType": "string",
          "name": "",
          "type": "string"
        }
      ],
      "stateMutability": "view",
      "type": "function"
    },
    {
      "inputs": [
        {
          "components": [
            {
              "internalType": "string",
              "name": "description",
              "type": "string"
            },
            {
              "internalType": "address",
              "name": "member",
              "type": "address"
            },
            {
              "internalType": "address",
              "name": "tokenPayout",
              "type": "address"
            },
            {
              "internalType": "uint256",
              "name": "amountPayout",
              "type": "uint256"
            },
            {
              "internalType": "uint256",
              "name": "deadline",
              "type": "uint256"
            },
            {
              "internalType": "enum ICenticVault.Status",
              "name": "status",
              "type": "uint8"
            }
          ],
          "internalType": "struct ICenticVault.Offer",
          "name": "_offer",
          "type": "tuple"
        }
      ],
      "name": "addOffer",
      "outputs": [],
      "stateMutability": "nonpayable",
      "type": "function"
    },
    {
      "inputs": [],
      "name": "claim",
      "outputs": [],
      "stateMutability": "nonpayable",
      "type": "function"
    },
    {
      "inputs": [],
      "name": "closeVault",
      "outputs": [],
      "stateMutability": "nonpayable",
      "type": "function"
    },
    {
      "inputs": [],
      "name": "deadline",
      "outputs": [
        {
          "internalType": "uint256",
          "name": "",
          "type": "uint256"
        }
      ],
      "stateMutability": "view",
      "type": "function"
    },
    {
      "inputs": [],
      "name": "deadlineClaim",
      "outputs": [
        {
          "internalType": "uint256",
          "name": "",
          "type": "uint256"
        }
      ],
      "stateMutability": "view",
      "type": "function"
    },
    {
      "inputs": [],
      "name": "deposit",
      "outputs": [],
      "stateMutability": "payable",
      "type": "function"
    },
    {
      "inputs": [
        {
          "internalType": "address",
          "name": "_sponsor",
          "type": "address"
        },
        {
          "internalType": "address",
          "name": "_tokenPayout",
          "type": "address"
        },
        {
          "internalType": "uint256",
          "name": "_totalPayout",
          "type": "uint256"
        },
        {
          "internalType": "address",
          "name": "_manager",
          "type": "address"
        }
      ],
      "name": "initialize",
      "outputs": [],
      "stateMutability": "nonpayable",
      "type": "function"
    },
    {
      "inputs": [],
      "name": "manager",
      "outputs": [
        {
          "internalType": "address",
          "name": "",
          "type": "address"
        }
      ],
      "stateMutability": "view",
      "type": "function"
    },
    {
      "inputs": [
        {
          "internalType": "uint256",
          "name": "",
          "type": "uint256"
        }
      ],
      "name": "members",
      "outputs": [
        {
          "internalType": "address",
          "name": "",
          "type": "address"
        }
      ],
      "stateMutability": "view",
      "type": "function"
    },
    {
      "inputs": [
        {
          "internalType": "address",
          "name": "",
          "type": "address"
        }
      ],
      "name": "offers",
      "outputs": [
        {
          "internalType": "string",
          "name": "description",
          "type": "string"
        },
        {
          "internalType": "address",
          "name": "member",
          "type": "address"
        },
        {
          "internalType": "address",
          "name": "tokenPayout",
          "type": "address"
        },
        {
          "internalType": "uint256",
          "name": "amountPayout",
          "type": "uint256"
        },
        {
          "internalType": "uint256",
          "name": "deadline",
          "type": "uint256"
        },
        {
          "internalType": "enum ICenticVault.Status",
          "name": "status",
          "type": "uint8"
        }
      ],
      "stateMutability": "view",
      "type": "function"
    },
    {
      "inputs": [],
      "name": "sponsor",
      "outputs": [
        {
          "internalType": "address",
          "name": "",
          "type": "address"
        }
      ],
      "stateMutability": "view",
      "type": "function"
    },
    {
      "inputs": [],
      "name": "tokenPayout",
      "outputs": [
        {
          "internalType": "address",
          "name": "",
          "type": "address"
        }
      ],
      "stateMutability": "view",
      "type": "function"
    },
    {
      "inputs": [],
      "name": "totalPayout",
      "outputs": [
        {
          "internalType": "uint256",
          "name": "",
          "type": "uint256"
        }
      ],
      "stateMutability": "view",
      "type": "function"
    },
    {
      "inputs": [
        {
          "internalType": "address",
          "name": "_sponsor",
          "type": "address"
        },
        {
          "internalType": "address",
          "name": "_tokenPayout",
          "type": "address"
        },
        {
          "internalType": "uint256",
          "name": "_totalPayout",
          "type": "uint256"
        },
        {
          "internalType": "address",
          "name": "_manager",
          "type": "address"
        },
        {
          "internalType": "uint256",
          "name": "_deadline",
          "type": "uint256"
        }
      ],
      "name": "updateOffer",
      "outputs": [],
      "stateMutability": "nonpayable",
      "type": "function"
    },
    {
      "inputs": [
        {
          "internalType": "address",
          "name": "_member",
          "type": "address"
        },
        {
          "internalType": "enum ICenticVault.Status",
          "name": "_status",
          "type": "uint8"
        }
      ],
      "name": "updateStatus",
      "outputs": [],
      "stateMutability": "nonpayable",
      "type": "function"
    }
  ],
  "transactionHash": "0xb24ea8f801cae20fd417f46ff752a6409e314f309b39462530901c4591c6e154",
  "args": [],
  "numDeployments": 1,
  "solcInputHash": "1b319f5f145f48fd71799023e0d427a0",
  "bytecode": "0x60806040523462000026576200001462000085565b604051611911620000a4823961191190f35b600080fd5b9060ff905b9181191691161790565b90565b90620000506200003a6200005892151590565b82546200002b565b9055565b9061ff009060081b62000030565b906200007d6200003a6200005892151590565b82546200005c565b62000093600060066200003d565b620000a1600060066200006a565b56fe6080604052600436101561001257600080fd5b60003560e01c80630f28ce961461011257806318976fa21461010d57806329dcb0cf14610108578063413bf38f1461010357806344c5bbf8146100fe578063454f7b8f146100f9578063481c6a75146100f45780634e71d92d146100ef578063536d7942146100ea5780635daf08ca146100e557806374a9254d146100e057806377c93662146100db57806387b551b5146100d6578063be203094146100d1578063d0e30db0146100cc5763ffa1ad7403610138576108b0565b610813565b6107f7565b6107a0565b610779565b610753565b61072c565b6106a4565b610658565b610623565b6105e4565b6105bf565b610551565b610219565b6101db565b6101ab565b6001600160a01b031690565b90565b6001600160a01b0381165b0361013857565b600080fd5b9050359061014a82610126565b565b80610131565b9050359061014a8261014c565b919060a08382031261013857610175818461013d565b92610183826020830161013d565b926101236101948460408501610152565b936101a2816060860161013d565b93608001610152565b34610138576101c76101be36600461015f565b939290926109b0565b604051005b0390f35b600091031261013857565b34610138576101eb3660046101d0565b6101c7610c81565b610123916008021c81565b9061012391546101f3565b610123600060046101fe565b9052565b34610138576102293660046101d0565b6101cc610234610209565b6040519182918290815260200190565b90602082820312610138576101239161013d565b61012390610117906001600160a01b031682565b61012390610258565b6101239061026c565b9061028890610275565b600052602052604060002090565b634e487b7160e01b600052602260045260246000fd5b90600160028304921680156102cc575b60208310146102c757565b610296565b91607f16916102bc565b805460009392916102f36102e9836102ac565b8085529360200190565b9160018116908115610345575060011461030c57505050565b61031f9192939450600052602060002090565b916000925b8184106103315750500190565b805484840152602090930192600101610324565b92949550505060ff1916825215156020020190565b90610123916102d6565b634e487b7160e01b600052604160045260246000fd5b90601f01601f1916810190811067ffffffffffffffff82111761039c57604052565b610364565b9061014a6103bb926103b260405190565b9384809261035a565b038361037a565b61012390610117565b61012390546103c2565b6101239081565b61012390546103d5565b610123905b60ff1690565b61012390546103e6565b61040690600961027e565b90610410826103a1565b9161041d600182016103cb565b9161042a600283016103cb565b91610437600382016103dc565b916101236005610449600485016103dc565b93016103f1565b60005b8381106104635750506000910152565b8181015183820152602001610453565b61049461049d6020936104a793610488815190565b80835293849260200190565b95869101610450565b601f01601f191690565b0190565b634e487b7160e01b600052602160045260246000fd5b600611156104cb57565b6104ab565b9061014a826104c1565b610123906104d0565b610215906104da565b919695939461054361014a9661053c60a09661052c61051a61054a9760c08a01908a820360008c0152610473565b6001600160a01b03909d166020890152565b6001600160a01b03166040870152565b6060850152565b6080830152565b01906104e3565b34610138576101cc61056c610567366004610244565b6103fb565b9261057c96949692919260405190565b968796876104ec565b6006111561013857565b9050359061014a82610585565b919060408382031261013857610123906105b6818561013d565b9360200161058f565b34610138576101c76105d236600461059c565b90610e40565b610123600060026101fe565b34610138576105f43660046101d0565b6101cc6102346105d8565b610123916008021c610117565b9061012391546105ff565b6101236000600361060c565b34610138576106333660046101d0565b6101cc61063e610617565b604051918291826001600160a01b03909116815260200190565b34610138576106683660046101d0565b6101c7610f44565b908160c09103126101385790565b9060208282031261013857813567ffffffffffffffff8111610138576101239201610670565b34610138576101c76106b736600461067e565b610fff565b906020828203126101385761012391610152565b634e487b7160e01b600052603260045260246000fd5b805482101561070957610700600191600052602060002090565b91020190600090565b6106d0565b600880548210156101385761012391610726916106e6565b9061060c565b34610138576101cc61063e6107423660046106bc565b61070e565b610123600060056101fe565b34610138576107633660046101d0565b6101cc610234610747565b61012360008061060c565b34610138576107893660046101d0565b6101cc61063e61076e565b6101236000600161060c565b34610138576107b03660046101d0565b6101cc61063e610794565b608081830312610138576107cf828261013d565b926101236107e0846020850161013d565b936107ee8160408601610152565b9360600161013d565b34610138576101c761080a3660046107bb565b9291909161123b565b61081e3660046101d0565b6101c76112d9565b9061014a61083360405190565b928361037a565b67ffffffffffffffff811161039c57602090601f01601f19160190565b906108696108648361083a565b610826565b918252565b6108786003610857565b620312e360ec1b602082015290565b61012361086e565b610123610887565b61012361088f565b602080825261012392910190610473565b34610138576108c03660046101d0565b6101cc6108cb610897565b6040519182918261089f565b939291906108e560036103cb565b6108f7335b916001600160a01b031690565b036109055761014a94610979565b60405163605919ad60e11b8152600490fd5b0390fd5b906001600160a01b03905b9181191691161790565b9061094061012361094792610275565b825461091b565b9055565b9060001990610926565b6101236101236101239290565b9061097261012361094792610955565b825461094b565b6109a99261099b61014a9695936109946109a2946000610930565b6001610930565b6002610962565b6003610930565b6004610962565b9061014a949392916108d7565b6109c760036103cb565b6109d0336108ea565b036109055761014a6109e0611389565b6109e8610b03565b61014a6113f7565b156109f757565b60405162461bcd60e51b815260206004820152601060248201526f496e76616c696420646561646c696e6560801b6044820152606490fd5b6101239060081c6103eb565b6101239054610a2f565b15610a4c57565b60405162461bcd60e51b815260206004820152601460248201527315985d5b1d08185b1c9958591e4818db1bdcd95960621b6044820152606490fd5b634e487b7160e01b600052601160045260246000fd5b91908201809211610aab57565b610a88565b6101176101236101239290565b61012390610ab0565b6040513d6000823e3d90fd5b91908203918211610aab57565b9061ff009060081b610926565b90610afc61012361094792151590565b8254610adf565b610b2142610b1b610b1761012360046103dc565b9190565b116109f0565b610b40610b2e6006610a3b565b610b3a60005b91151590565b14610a45565b610b4a6000610955565b610b546000610955565b80610b64610b1761012360085490565b1015610be957610b8e6005610b886009610b826107268660086106e6565b9061027e565b016103f1565b610ba1610b9b60026104d0565b916104d0565b14610bb4575b600101610b54565b610b54565b90610be1610baf91610bdb6003610bd56009610b8261072660088a906106e6565b016103dc565b90610a9e565b919050610ba7565b50610bf460016103cb565b610c046108ea6101176000610abd565b14610c4f57610c4390610c1f610c1a60016103cb565b610275565b90610c3d610c2d60006103cb565b91610c3860076103dc565b610ad2565b91611468565b61014a60016006610aec565b600080808093610c65610c1a610c1a60036103cb565b828215610c78575bf1610c43575b610ac6565b506108fc610c6d565b61014a6109bd565b90610c9460036103cb565b610c9d336108ea565b036109055761014a91610deb565b9060ff90610926565b90610cc4610123610947926104da565b8254610cab565b80546000939291610ce2610cde836102ac565b9390565b91600181169081156103455750600114610cfb57505050565b610d0e9192939450600052602060002090565b916000925b818410610d205750500190565b805484840152602090930192600101610d13565b9061012391610ccb565b906104a7816020936104e3565b610dc16005610db9610dac610d97610d8a610d6c6101239860008901610d34565b610d7960018901546103c2565b6001600160a01b0316815260200190565b610d7960028801546103c2565b610da460038701546103d5565b815260200190565b610da460048601546103d5565b9201546103e6565b610d3e565b61012391610d4b565b610de590610ddc60405190565b91829182610dc6565b03902090565b610dfc610123610e0692600961027e565b9160058301610cb4565b610e307fdc5800cd986f90adb1f25f5b90f0db543989af9feb77521cc40809e0e7f3cc9f91610dcf565b90610e3a60405190565b600090a2565b9061014a91610c89565b610e52611389565b6109e8610e97565b15610e6157565b60405162461bcd60e51b815260206004820152600e60248201526d496e76616c69642073746174757360901b6044820152606490fd5b610ebd610eaa6005610b8833600961027e565b610eb7610b9b60026104d0565b14610e5a565b610ed560036005610ecf33600961027e565b01610cb4565b610edf60016103cb565b610eef6108ea6101176000610abd565b14610f0f5761014a610f04610c1a60016103cb565b33610c3d60026103dc565b6000808080610f20610c1a33610275565b610f2a60026103dc565b90828215610f3b575bf115610c7357565b506108fc610f33565b61014a610e4a565b610f5660036103cb565b610f5f336108ea565b036109055761014a90610fb6565b3561012381610126565b15610f7e57565b60405162461bcd60e51b815260206004820152601060248201526f223ab83634b1b0ba32b21037b33332b960811b6044820152606490fd5b61014a90610fe6610fd36005610b886009610b8260208701610f6d565b610fe0610b9b60006104d0565b14610f77565b610ffa610ff560208301610f6d565b611512565b61170b565b61014a90610f4c565b6101239060401c6103eb565b6101239054611008565b610123905b67ffffffffffffffff1690565b610123905461101e565b6110236101236101239290565b9067ffffffffffffffff90610926565b6110236101236101239267ffffffffffffffff1690565b9061107e61012361094792611057565b8254611047565b9068ff00000000000000009060401b610926565b906110a961012361094792151590565b8254611085565b6102159061103a565b60208101929161014a91906110b0565b9091926110f37ff0c57e16840df040f15088dc2f81fe391c3923bec73e23a9662efc9c229c6a0090565b9361110461110086611014565b1590565b9361110e86611030565b8061112a61111c600061103a565b9167ffffffffffffffff1690565b1480611215575b9061113f61111c600161103a565b14806111f2575b90155b90816111e9575b506111d7576111769361116c611166600161103a565b8861106e565b856111c75761121c565b61117d5750565b61118990600090611099565b60016111c27fc7f505b2f371ae2175ee4913f4499e1f2633a7b5936321eed1cdaeb6115181d2916111b960405190565b918291826110b9565b0390a1565b6111d2600188611099565b61121c565b60405163f92ee8a960e01b8152600490fd5b15905038611150565b506111496111ff30610275565b3b61120d610b176000610955565b149050611146565b5085611131565b9161099b6109a29261099461014a96956112346117a6565b6000610930565b9061014a9392916110c9565b1561124e57565b60405162461bcd60e51b815260206004820152601660248201527515985d5b1d08185b1c9958591e4819985d58d95d195960521b6044820152606490fd5b1561129357565b60405162461bcd60e51b815260206004820152600e60248201526d125b9d985b1a5908185b5bdd5b9d60921b6044820152606490fd5b90610cc461012361094792151590565b6112f66112e660066103f1565b6112f06000610b34565b14611247565b61130060016103cb565b6113106108ea6101176000610abd565b1461136057611340611325610c1a60016103cb565b3361132f30610275565b9061133a60026103dc565b926117d2565b61134c600160066112c9565b61014a61135960026103dc565b6007610962565b61137a34611374610b1761012360026103dc565b1461128c565b611340565b6101236002610955565b7f9b779b17422d0df92223018b32b4d1fa46e071723d6817e2486d003becc55f006113b3816103dc565b6113c1610b1761012361137f565b146113db5761014a9060006113d461137f565b9101610962565b604051633ee5aeb560e01b8152600490fd5b6101236001610955565b61014a7f9b779b17422d0df92223018b32b4d1fa46e071723d6817e2486d003becc55f0060006113d46113ed565b61143e6114386101239263ffffffff1690565b60e01b90565b6001600160e01b03191690565b6001600160a01b03909116815260408101929161014a9160200152565b61014a926004926114ad9161149e9061148463a9059cbb611425565b9261148e60405190565b968794602086019081520161144b565b6020820181038252038361037a565b61180c565b916001600160a01b0360089290920291821b911b610926565b91906114dc61012361094793610275565b9083546114b2565b908154916801000000000000000083101561039c578261150c91600161014a950181556106e6565b906114cb565b61151d8160086114e4565b610e307f1a2323d99020f3db8e6ea85b1eea81e5bf422695877228e3d8a0241d7e957a6c91610275565b903590601e193682900301821215610138570180359067ffffffffffffffff8211610138576020019136829003831361013857565b9160001960089290920291821b911b610926565b91906115a161012361094793610955565b90835461157c565b61014a91600091611590565b8181106115c0575050565b806115ce60006001936115a9565b016115b5565b9190601f81116115e357505050565b6115f561014a93600052602060002090565b906020601f840181900483019310611617575b6020601f9091010401906115b5565b9091508190611608565b919067ffffffffffffffff821161039c576116468261164085546102ac565b856115d4565b600090601f831160011461168157610947929160009183611676575b5050600019600883021c1916906002021790565b013590503880611662565b601f1983169161169685600052602060002090565b9260005b8181106116d4575091600293918560019694106116bb575b50505002019055565b0135600019601f84166008021c191690553880806116b2565b9193602060018192878701358155019501920161169a565b9061014a9291611621565b356101238161014c565b3561012381610585565b610e0661178a60a06117276101236009610b8260208801610f6d565b9361173c6117358280611547565b90876116ec565b61175461174b60408301610f6d565b60028701610930565b61176c611763606083016116f7565b60038701610962565b61178461177b608083016116f7565b60048701610962565b01611701565b60058301610cb4565b61179b6118a8565b61014a61014a6118d3565b61014a611793565b6001600160a01b0391821681529116602082015260608101929161014a9160400152565b61014a9360049391926114ad92909161149e916117f26323b872dd611425565b936117fc60405190565b97889560208701908152016117ae565b90600060209161181a600090565b50828151910182855af115610ac6573d6000519061183b610b176000610955565b03611894575061184a81610275565b3b611858610b176000610955565b145b6118615750565b61186d61091791610275565b604051635274afe760e01b8152918291600483016001600160a01b03909116815260200190565b6118a1610b176001610955565b141561185a565b6118b36111006118db565b6118b957565b604051631afcd79f60e31b8152600490fd5b6109e86118a8565b61014a6118cb565b6101237ff0c57e16840df040f15088dc2f81fe391c3923bec73e23a9662efc9c229c6a0061101456fea164736f6c6343000818000a",
  "devdoc": {
    "errors": {
      "InvalidInitialization()": [
        {
          "details": "The contract is already initialized."
        }
      ],
      "NotInitializing()": [
        {
          "details": "The contract is not initializing."
        }
      ],
      "ReentrancyGuardReentrantCall()": [
        {
          "details": "Unauthorized reentrant call."
        }
      ],
      "SafeERC20FailedOperation(address)": [
        {
          "details": "An operation with an ERC-20 token failed."
        }
      ]
    },
    "events": {
      "Initialized(uint64)": {
        "details": "Triggered when the contract has been initialized or reinitialized."
      }
    },
    "kind": "dev",
    "methods": {},
    "version": 1
  },
  "userdoc": {
    "kind": "user",
    "methods": {},
    "version": 1
  },
  "storageLayout": {
    "storage": [
      {
        "astId": 1986,
        "contract": "contracts/CenticVault.sol:CenticVault",
        "label": "sponsor",
        "offset": 0,
        "slot": "0",
        "type": "t_address"
      },
      {
        "astId": 1988,
        "contract": "contracts/CenticVault.sol:CenticVault",
        "label": "tokenPayout",
        "offset": 0,
        "slot": "1",
        "type": "t_address"
      },
      {
        "astId": 1990,
        "contract": "contracts/CenticVault.sol:CenticVault",
        "label": "totalPayout",
        "offset": 0,
        "slot": "2",
        "type": "t_uint256"
      },
      {
        "astId": 1992,
        "contract": "contracts/CenticVault.sol:CenticVault",
        "label": "manager",
        "offset": 0,
        "slot": "3",
        "type": "t_address"
      },
      {
        "astId": 1994,
        "contract": "contracts/CenticVault.sol:CenticVault",
        "label": "deadline",
        "offset": 0,
        "slot": "4",
        "type": "t_uint256"
      },
      {
        "astId": 1996,
        "contract": "contracts/CenticVault.sol:CenticVault",
        "label": "deadlineClaim",
        "offset": 0,
        "slot": "5",
        "type": "t_uint256"
      },
      {
        "astId": 1999,
        "contract": "contracts/CenticVault.sol:CenticVault",
        "label": "fauceted",
        "offset": 0,
        "slot": "6",
        "type": "t_bool"
      },
      {
        "astId": 2002,
        "contract": "contracts/CenticVault.sol:CenticVault",
        "label": "vaultClosed",
        "offset": 1,
        "slot": "6",
        "type": "t_bool"
      },
      {
        "astId": 2004,
        "contract": "contracts/CenticVault.sol:CenticVault",
        "label": "balance",
        "offset": 0,
        "slot": "7",
        "type": "t_uint256"
      },
      {
        "astId": 2007,
        "contract": "contracts/CenticVault.sol:CenticVault",
        "label": "members",
        "offset": 0,
        "slot": "8",
        "type": "t_array(t_address)dyn_storage"
      },
      {
        "astId": 2012,
        "contract": "contracts/CenticVault.sol:CenticVault",
        "label": "offers",
        "offset": 0,
        "slot": "9",
        "type": "t_mapping(t_address,t_struct(Offer)2481_storage)"
      }
    ],
    "types": {
      "t_address": {
        "encoding": "inplace",
        "label": "address",
        "numberOfBytes": "20"
      },
      "t_array(t_address)dyn_storage": {
        "base": "t_address",
        "encoding": "dynamic_array",
        "label": "address[]",
        "numberOfBytes": "32"
      },
      "t_bool": {
        "encoding": "inplace",
        "label": "bool",
        "numberOfBytes": "1"
      },
      "t_enum(Status)2467": {
        "encoding": "inplace",
        "label": "enum ICenticVault.Status",
        "numberOfBytes": "1"
      },
      "t_mapping(t_address,t_struct(Offer)2481_storage)": {
        "encoding": "mapping",
        "key": "t_address",
        "label": "mapping(address => struct ICenticVault.Offer)",
        "numberOfBytes": "32",
        "value": "t_struct(Offer)2481_storage"
      },
      "t_string_storage": {
        "encoding": "bytes",
        "label": "string",
        "numberOfBytes": "32"
      },
      "t_struct(Offer)2481_storage": {
        "encoding": "inplace",
        "label": "struct ICenticVault.Offer",
        "members": [
          {
            "astId": 2469,
            "contract": "contracts/CenticVault.sol:CenticVault",
            "label": "description",
            "offset": 0,
            "slot": "0",
            "type": "t_string_storage"
          },
          {
            "astId": 2471,
            "contract": "contracts/CenticVault.sol:CenticVault",
            "label": "member",
            "offset": 0,
            "slot": "1",
            "type": "t_address"
          },
          {
            "astId": 2473,
            "contract": "contracts/CenticVault.sol:CenticVault",
            "label": "tokenPayout",
            "offset": 0,
            "slot": "2",
            "type": "t_address"
          },
          {
            "astId": 2475,
            "contract": "contracts/CenticVault.sol:CenticVault",
            "label": "amountPayout",
            "offset": 0,
            "slot": "3",
            "type": "t_uint256"
          },
          {
            "astId": 2477,
            "contract": "contracts/CenticVault.sol:CenticVault",
            "label": "deadline",
            "offset": 0,
            "slot": "4",
            "type": "t_uint256"
          },
          {
            "astId": 2480,
            "contract": "contracts/CenticVault.sol:CenticVault",
            "label": "status",
            "offset": 0,
            "slot": "5",
            "type": "t_enum(Status)2467"
          }
        ],
        "numberOfBytes": "192"
      },
      "t_uint256": {
        "encoding": "inplace",
        "label": "uint256",
        "numberOfBytes": "32"
      }
    }
  }
}