{
  "address": "0x5B9A867e9096150EA26122C65E4d2E319655EC5a",
  "abi": [
    {
      "inputs": [],
      "name": "AccessControlBadConfirmation",
      "type": "error"
    },
    {
      "inputs": [
        {
          "internalType": "address",
          "name": "account",
          "type": "address"
        },
        {
          "internalType": "bytes32",
          "name": "neededRole",
          "type": "bytes32"
        }
      ],
      "name": "AccessControlUnauthorizedAccount",
      "type": "error"
    },
    {
      "inputs": [],
      "name": "ECDSAInvalidSignature",
      "type": "error"
    },
    {
      "inputs": [
        {
          "internalType": "uint256",
          "name": "length",
          "type": "uint256"
        }
      ],
      "name": "ECDSAInvalidSignatureLength",
      "type": "error"
    },
    {
      "inputs": [
        {
          "internalType": "bytes32",
          "name": "s",
          "type": "bytes32"
        }
      ],
      "name": "ECDSAInvalidSignatureS",
      "type": "error"
    },
    {
      "inputs": [],
      "name": "InvalidInitialization",
      "type": "error"
    },
    {
      "inputs": [],
      "name": "NotInitializing",
      "type": "error"
    },
    {
      "inputs": [],
      "name": "ReentrancyGuardReentrantCall",
      "type": "error"
    },
    {
      "inputs": [
        {
          "internalType": "address",
          "name": "token",
          "type": "address"
        }
      ],
      "name": "SafeERC20FailedOperation",
      "type": "error"
    },
    {
      "anonymous": false,
      "inputs": [
        {
          "indexed": false,
          "internalType": "uint64",
          "name": "version",
          "type": "uint64"
        }
      ],
      "name": "Initialized",
      "type": "event"
    },
    {
      "anonymous": false,
      "inputs": [
        {
          "indexed": true,
          "internalType": "bytes32",
          "name": "id",
          "type": "bytes32"
        },
        {
          "indexed": true,
          "internalType": "uint256",
          "name": "particapantIndex",
          "type": "uint256"
        },
        {
          "indexed": true,
          "internalType": "address",
          "name": "addr",
          "type": "address"
        }
      ],
      "name": "OfferAccepted",
      "type": "event"
    },
    {
      "anonymous": false,
      "inputs": [
        {
          "indexed": true,
          "internalType": "bytes32",
          "name": "id",
          "type": "bytes32"
        },
        {
          "indexed": false,
          "internalType": "uint256",
          "name": "balance",
          "type": "uint256"
        }
      ],
      "name": "OfferClosed",
      "type": "event"
    },
    {
      "anonymous": false,
      "inputs": [
        {
          "indexed": true,
          "internalType": "bytes32",
          "name": "id",
          "type": "bytes32"
        },
        {
          "indexed": true,
          "internalType": "address",
          "name": "addr",
          "type": "address"
        },
        {
          "indexed": true,
          "internalType": "address",
          "name": "token",
          "type": "address"
        },
        {
          "indexed": false,
          "internalType": "uint256",
          "name": "amount",
          "type": "uint256"
        }
      ],
      "name": "OfferOpened",
      "type": "event"
    },
    {
      "anonymous": false,
      "inputs": [
        {
          "indexed": true,
          "internalType": "bytes32",
          "name": "id",
          "type": "bytes32"
        },
        {
          "indexed": false,
          "internalType": "uint256",
          "name": "amount",
          "type": "uint256"
        }
      ],
      "name": "OfferUpgraded",
      "type": "event"
    },
    {
      "anonymous": false,
      "inputs": [
        {
          "indexed": true,
          "internalType": "bytes32",
          "name": "id",
          "type": "bytes32"
        },
        {
          "indexed": true,
          "internalType": "address",
          "name": "addr",
          "type": "address"
        },
        {
          "indexed": false,
          "internalType": "uint256",
          "name": "reward",
          "type": "uint256"
        }
      ],
      "name": "RewardClaimed",
      "type": "event"
    },
    {
      "anonymous": false,
      "inputs": [
        {
          "indexed": true,
          "internalType": "bytes32",
          "name": "id",
          "type": "bytes32"
        },
        {
          "indexed": true,
          "internalType": "uint256",
          "name": "particapantIndex",
          "type": "uint256"
        },
        {
          "indexed": false,
          "internalType": "uint256",
          "name": "reward",
          "type": "uint256"
        }
      ],
      "name": "RewardUpdated",
      "type": "event"
    },
    {
      "anonymous": false,
      "inputs": [
        {
          "indexed": true,
          "internalType": "bytes32",
          "name": "role",
          "type": "bytes32"
        },
        {
          "indexed": true,
          "internalType": "bytes32",
          "name": "previousAdminRole",
          "type": "bytes32"
        },
        {
          "indexed": true,
          "internalType": "bytes32",
          "name": "newAdminRole",
          "type": "bytes32"
        }
      ],
      "name": "RoleAdminChanged",
      "type": "event"
    },
    {
      "anonymous": false,
      "inputs": [
        {
          "indexed": true,
          "internalType": "bytes32",
          "name": "role",
          "type": "bytes32"
        },
        {
          "indexed": true,
          "internalType": "address",
          "name": "account",
          "type": "address"
        },
        {
          "indexed": true,
          "internalType": "address",
          "name": "sender",
          "type": "address"
        }
      ],
      "name": "RoleGranted",
      "type": "event"
    },
    {
      "anonymous": false,
      "inputs": [
        {
          "indexed": true,
          "internalType": "bytes32",
          "name": "role",
          "type": "bytes32"
        },
        {
          "indexed": true,
          "internalType": "address",
          "name": "account",
          "type": "address"
        },
        {
          "indexed": true,
          "internalType": "address",
          "name": "sender",
          "type": "address"
        }
      ],
      "name": "RoleRevoked",
      "type": "event"
    },
    {
      "inputs": [],
      "name": "DEFAULT_ADMIN_ROLE",
      "outputs": [
        {
          "internalType": "bytes32",
          "name": "",
          "type": "bytes32"
        }
      ],
      "stateMutability": "view",
      "type": "function"
    },
    {
      "inputs": [],
      "name": "MANAGER_ROLE",
      "outputs": [
        {
          "internalType": "bytes32",
          "name": "",
          "type": "bytes32"
        }
      ],
      "stateMutability": "view",
      "type": "function"
    },
    {
      "inputs": [
        {
          "internalType": "address",
          "name": "_verifier",
          "type": "address"
        }
      ],
      "name": "changeVerifier",
      "outputs": [],
      "stateMutability": "nonpayable",
      "type": "function"
    },
    {
      "inputs": [
        {
          "internalType": "bytes",
          "name": "data",
          "type": "bytes"
        },
        {
          "internalType": "bytes",
          "name": "signature",
          "type": "bytes"
        }
      ],
      "name": "claimReward",
      "outputs": [],
      "stateMutability": "nonpayable",
      "type": "function"
    },
    {
      "inputs": [
        {
          "internalType": "bytes32",
          "name": "_id",
          "type": "bytes32"
        }
      ],
      "name": "closeOffer",
      "outputs": [],
      "stateMutability": "nonpayable",
      "type": "function"
    },
    {
      "inputs": [
        {
          "internalType": "bytes32",
          "name": "role",
          "type": "bytes32"
        }
      ],
      "name": "getRoleAdmin",
      "outputs": [
        {
          "internalType": "bytes32",
          "name": "",
          "type": "bytes32"
        }
      ],
      "stateMutability": "view",
      "type": "function"
    },
    {
      "inputs": [
        {
          "internalType": "bytes32",
          "name": "role",
          "type": "bytes32"
        },
        {
          "internalType": "address",
          "name": "account",
          "type": "address"
        }
      ],
      "name": "grantRole",
      "outputs": [],
      "stateMutability": "nonpayable",
      "type": "function"
    },
    {
      "inputs": [
        {
          "internalType": "bytes32",
          "name": "role",
          "type": "bytes32"
        },
        {
          "internalType": "address",
          "name": "account",
          "type": "address"
        }
      ],
      "name": "hasRole",
      "outputs": [
        {
          "internalType": "bool",
          "name": "",
          "type": "bool"
        }
      ],
      "stateMutability": "view",
      "type": "function"
    },
    {
      "inputs": [
        {
          "internalType": "address",
          "name": "_verifier",
          "type": "address"
        }
      ],
      "name": "initialize",
      "outputs": [],
      "stateMutability": "nonpayable",
      "type": "function"
    },
    {
      "inputs": [
        {
          "internalType": "bytes32",
          "name": "",
          "type": "bytes32"
        }
      ],
      "name": "offers",
      "outputs": [
        {
          "internalType": "bytes32",
          "name": "id",
          "type": "bytes32"
        },
        {
          "internalType": "address",
          "name": "addr",
          "type": "address"
        },
        {
          "internalType": "address",
          "name": "token",
          "type": "address"
        },
        {
          "internalType": "uint256",
          "name": "balance",
          "type": "uint256"
        },
        {
          "internalType": "enum IAutoPayoutVault.OfferStatus",
          "name": "status",
          "type": "uint8"
        }
      ],
      "stateMutability": "view",
      "type": "function"
    },
    {
      "inputs": [
        {
          "internalType": "bytes32",
          "name": "_id",
          "type": "bytes32"
        },
        {
          "internalType": "address",
          "name": "_token",
          "type": "address"
        },
        {
          "internalType": "uint256",
          "name": "_amount",
          "type": "uint256"
        }
      ],
      "name": "openOffer",
      "outputs": [],
      "stateMutability": "payable",
      "type": "function"
    },
    {
      "inputs": [
        {
          "internalType": "bytes32",
          "name": "role",
          "type": "bytes32"
        },
        {
          "internalType": "address",
          "name": "callerConfirmation",
          "type": "address"
        }
      ],
      "name": "renounceRole",
      "outputs": [],
      "stateMutability": "nonpayable",
      "type": "function"
    },
    {
      "inputs": [
        {
          "internalType": "bytes32",
          "name": "role",
          "type": "bytes32"
        },
        {
          "internalType": "address",
          "name": "account",
          "type": "address"
        }
      ],
      "name": "revokeRole",
      "outputs": [],
      "stateMutability": "nonpayable",
      "type": "function"
    },
    {
      "inputs": [
        {
          "internalType": "bytes32",
          "name": "",
          "type": "bytes32"
        }
      ],
      "name": "signatureUsed",
      "outputs": [
        {
          "internalType": "bool",
          "name": "",
          "type": "bool"
        }
      ],
      "stateMutability": "view",
      "type": "function"
    },
    {
      "inputs": [
        {
          "internalType": "bytes4",
          "name": "interfaceId",
          "type": "bytes4"
        }
      ],
      "name": "supportsInterface",
      "outputs": [
        {
          "internalType": "bool",
          "name": "",
          "type": "bool"
        }
      ],
      "stateMutability": "view",
      "type": "function"
    },
    {
      "inputs": [
        {
          "internalType": "bytes32",
          "name": "_id",
          "type": "bytes32"
        },
        {
          "internalType": "uint256",
          "name": "_extraPayout",
          "type": "uint256"
        }
      ],
      "name": "upgradeOffer",
      "outputs": [],
      "stateMutability": "nonpayable",
      "type": "function"
    },
    {
      "inputs": [],
      "name": "verifier",
      "outputs": [
        {
          "internalType": "address",
          "name": "",
          "type": "address"
        }
      ],
      "stateMutability": "view",
      "type": "function"
    },
    {
      "inputs": [
        {
          "internalType": "address",
          "name": "signer",
          "type": "address"
        },
        {
          "internalType": "bytes",
          "name": "data",
          "type": "bytes"
        },
        {
          "internalType": "bytes",
          "name": "signature",
          "type": "bytes"
        }
      ],
      "name": "verifyEthMessage",
      "outputs": [
        {
          "internalType": "bool",
          "name": "",
          "type": "bool"
        }
      ],
      "stateMutability": "pure",
      "type": "function"
    }
  ],
  "transactionHash": "0xd92a1aedbda8e7a495d65a6c206692e3c1e2f0876a807c6c0f4e8cd041ec9640",
  "args": [],
  "numDeployments": 2,
  "solcInputHash": "1bd0703ca507030f37bd2c6208d66349",
  "bytecode": "0x60a06040523461005a576100327f241ecf16d79d0f8dbfb92cbc07fe17840425976cf0667f022fe9877caa831b08608052565b604051611a7a61006082396080518181816106e4015281816111ad015261123b0152611a7a90f35b600080fdfe6080604052600436101561001257600080fd5b60003560e01c806301221ce11461013257806301ffc9a71461012d57806312c961d514610128578063248a9ca3146101235780632b7ac3f31461011e5780632f2ff15d1461011957806336568abe14610114578063474d3ff01461010f57806391d148541461010a5780639cc2f88c14610105578063a217fddf14610100578063a47924c4146100fb578063c4d66de8146100f6578063cf04fb94146100f1578063d547741f146100ec578063d5fbf32f146100e7578063e307fb31146100e25763ec87621c03610167576106cf565b6106b4565b610666565b6105f7565b6105df565b6105c7565b61059f565b610554565b61051d565b610501565b6104d0565b6103a0565b610387565b610327565b6102ac565b61027f565b61021c565b6101ba565b909182601f830112156101675781359167ffffffffffffffff831161016757602001926001830284011161016757565b600080fd5b909160408284031261016757813567ffffffffffffffff81116101675783610195918401610137565b929093602082013567ffffffffffffffff8111610167576101b69201610137565b9091565b34610167576101d66101cd36600461016c565b92919091610b12565b604051005b0390f35b6001600160e01b031981165b0361016757565b905035906101ff826101df565b565b9060208282031261016757610215916101f2565b90565b9052565b34610167576101db610237610232366004610201565b610b1e565b60405191829182901515815260200190565b806101eb565b905035906101ff82610249565b91906040838203126101675761021590610276818561024f565b9360200161024f565b34610167576101d661029236600461025c565b90610b5c565b90602082820312610167576102159161024f565b34610167576101db6102c76102c2366004610298565b610be1565b6040515b9182918290815260200190565b600091031261016757565b610215916008021c5b6001600160a01b031690565b9061021591546102e3565b6102156000806102f8565b610218906102ec565b6020810192916101ff919061030e565b34610167576103373660046102d8565b6101db610342610303565b60405191829182610317565b6101eb816102ec565b905035906101ff8261034e565b9190604083820312610167576102159061037e818561024f565b93602001610357565b34610167576101d661039a366004610364565b90610c34565b34610167576101d66103b3366004610364565b90610c3e565b905b600052602052604060002090565b6102159081565b61021590546103c9565b610215906102ec565b61021590546103da565b610215905b60ff1690565b61021590546103ed565b61040d9060016103b9565b610416816103d0565b91610423600183016103e3565b91610430600282016103e3565b916102156004610442600385016103d0565b93016103f8565b634e487b7160e01b600052602160045260246000fd5b6003111561046957565b610449565b906101ff8261045f565b6102159061046e565b61021890610478565b909594926101ff946104c26104c9926104b86080966104ae60a088019c6000890152565b602087019061030e565b604085019061030e565b6060830152565b0190610481565b34610167576101db6104eb6104e6366004610298565b610402565b916104f895939560405190565b9586958661048a565b34610167576101db610237610517366004610364565b90610c7b565b34610167576101d6610530366004610298565b610e25565b6102156102156102159290565b6102156000610535565b610215610542565b34610167576105643660046102d8565b6101db6102c761054c565b909160608284031261016757610215610588848461024f565b936105968160208601610357565b9360400161024f565b6101d66105ad36600461056f565b91610eae565b906020828203126101675761021591610357565b34610167576101d66105da3660046105b3565b6111d9565b34610167576101d66105f23660046105b3565b61122e565b34610167576101d661060a366004610364565b90611286565b606081830312610167576106248282610357565b92602082013567ffffffffffffffff81116101675783610645918401610137565b929093604082013567ffffffffffffffff8111610167576101b69201610137565b34610167576101db61023761067c366004610610565b93929092611290565b610215916008021c6103f2565b906102159154610685565b610215906106af6002916000926103b9565b610692565b34610167576101db6102376106ca366004610298565b61069d565b34610167576106df3660046102d8565b6101db7f00000000000000000000000000000000000000000000000000000000000000006102c7565b9061071c939291610717611310565b61099e565b6101ff61137e565b610215906102ec906001600160a01b031682565b61021590610724565b61021590610738565b1561075157565b60405162461bcd60e51b815260206004820152601760248201527f415030383a20696e76616c6964207369676e61747572650000000000000000006044820152606490fd5b0390fd5b156107a157565b60405162461bcd60e51b815260206004820152601660248201527510540c0d8e881b9bdd081bdddb995c881c995dd85c9960521b6044820152606490fd5b634e487b7160e01b600052604160045260246000fd5b90601f01601f1916810190811067ffffffffffffffff82111761081757604052565b6107df565b906101ff61082960405190565b92836107f5565b67ffffffffffffffff811161081757602090601f01601f19160190565b90826000939282370152565b9092919261086e61086982610830565b61081c565b93818552602085019082840111610167576101ff9261084d565b610215913691610859565b1561089a57565b60405162461bcd60e51b815260206004820152601c60248201527f415030393a207369676e617475726520616c72656164792075736564000000006044820152606490fd5b9060ff905b9181191691161790565b906108fe61021561090592151590565b82546108df565b9055565b1561091057565b60405162461bcd60e51b815260206004820152601760248201527f415030333a206f66666572206973206e6f74206f70656e0000000000000000006044820152606490fd5b634e487b7160e01b600052601160045260246000fd5b9190820391821161097857565b610955565b90600019906108e4565b9061099761021561090592610535565b825461097d565b92610a6190610a5c6109c793946109e26109dd6109be898981019061056f565b9a919890610741565b99986109d360006103e3565b8792869291611290565b61074a565b6109fe336109f86109f28a6102ec565b916102ec565b1461079a565b610a3c610a37610a33610a2e610a148786610888565b610a26610a1f825190565b9160200190565b2060026103b9565b6103f8565b1590565b610893565b610a4a600193600292610888565b610a55610a1f825190565b20906103b9565b6108ee565b610acc610ac46002610a776102158560016103b9565b610a9f610a86600483016103f8565b610a99610a93600161046e565b9161046e565b14610909565b610abe60038201610ab888610ab3836103d0565b61096b565b90610987565b016103e3565b8484916113ce565b919091610b0d610b03610afd7ffe236dfc7ce073698734b89da1aee0e7551c9c6d264404c502e6e8fefc1132a89390565b93610741565b936102cb60405190565b0390a3565b906101ff939291610708565b80610b39637965db0b60e01b5b916001600160e01b03191690565b14908115610b45575090565b610215915061142f565b9190820180921161097857565b610ba7610b6d6102158360016103b9565b610b7c610a86600483016103f8565b610b92610b8b600283016103e3565b8590611482565b600301610ab884610ba2836103d0565b610b4f565b610bdc610bd27fa9beb7e55f1bfe250de500d9d2a335083cf75a8983506f4fa6a80375e861f0739290565b926102cb60405190565b0390a2565b6001610c0b61021592610bf2600090565b506000600080516020611a4e8339815191525b016103b9565b016103d0565b906101ff91610c27610c2282610be1565b6114cd565b90610c31916114d8565b50565b906101ff91610c11565b9080610c516109f2336102ec565b6102ec565b03610c5f57610c319161156b565b60405163334bd91960e11b8152600490fd5b906103bb90610741565b610215916000610ca6610a2e93610c90600090565b5082600080516020611a4e833981519152610c05565b01610c71565b61071c90610cb8611310565b610d57565b15610cc457565b60405162461bcd60e51b815260206004820152601760248201527f415030373a206f66666572206973206e6f74206f70656e0000000000000000006044820152606490fd5b15610d1057565b60405162461bcd60e51b815260206004820152600f60248201526e20a818981d103737ba1037bbb732b960891b6044820152606490fd5b906108fe61021561090592610478565b610df96003610d6a6102158460016103b9565b92610d8d610d7a600486016103f8565b610d87610a93600161046e565b14610cbd565b610dae610d9c600186016103e3565b610da86109f2336102ec565b14610d09565b610dbc600260048601610d47565b610ddd610dcb600286016103e3565b33610dd78588016103d0565b916113ce565b610df2610dea6000610535565b838601610987565b92016103d0565b90610bdc610bd27f794ffac5b22db539e60384ac3f970c1ec54f7db21f2ea18a3ead39d4da2403999290565b6101ff90610cac565b15610e3557565b60405162461bcd60e51b815260206004820152601a60248201527f415030313a206f6666657220616c7265616479206578697374730000000000006044820152606490fd5b906109976102156109059290565b906001600160a01b03906108e4565b90610ea761021561090592610741565b8254610e88565b909190610f2a610ec26102158360016103b9565b610ee4610ed1600483016103f8565b610ede610a93600061046e565b14610e2e565b610eee8486611482565b610ef88382610e7a565b610f053360018301610e97565b610f128560028301610e97565b610f1f8460038301610987565b600460019101610d47565b9133909192610f70610f66610f60610f607f61ef3faffb1a94178d5aa8b0e72421c72cbe712827dd4947e07da672b5027b929490565b94610741565b946102cb60405190565b0390a4565b6102159060401c6103f2565b6102159054610f75565b610215905b67ffffffffffffffff1690565b6102159054610f8b565b610f906102156102159290565b9067ffffffffffffffff906108e4565b610f906102156102159267ffffffffffffffff1690565b90610feb61021561090592610fc4565b8254610fb4565b9068ff00000000000000009060401b6108e4565b9061101661021561090592151590565b8254610ff2565b61021890610fa7565b6020810192916101ff919061101d565b7ff0c57e16840df040f15088dc2f81fe391c3923bec73e23a9662efc9c229c6a0090611064610a3383610f81565b9061106e83610f9d565b8061108a61107c6000610fa7565b9167ffffffffffffffff1690565b1480611179575b9061109f61107c6001610fa7565b1480611152575b90155b9081611149575b50611137576110d6906110cc6110c66001610fa7565b85610fdb565b8261112757611180565b6110dd5750565b6110e990600090611006565b60016111227fc7f505b2f371ae2175ee4913f4499e1f2633a7b5936321eed1cdaeb6115181d29161111960405190565b91829182611026565b0390a1565b611132600185611006565b611180565b60405163f92ee8a960e01b8152600490fd5b159050386110b0565b506110a961115f30610741565b3b61117161116d6000610535565b9190565b1490506110a6565b5082611091565b6101ff9061118c6115e4565b6111946115f4565b6111a661119f610542565b33906114d8565b506111d1337f00000000000000000000000000000000000000000000000000000000000000006114d8565b506000610e97565b6101ff90611036565b156111e957565b60405162461bcd60e51b815260206004820152601c60248201527f415030343a206d7573742068617665206d616e6167657220726f6c65000000006044820152606490fd5b6101ff9061126461125f337f0000000000000000000000000000000000000000000000000000000000000000610c7b565b6111e2565b6000610e97565b906101ff9161127c610c2282610be1565b90610c319161156b565b906101ff9161126b565b93926112f6611302946112f06112b56109f2966112fc966112af600090565b50610888565b6112c0610a1f825190565b207f19457468657265756d205369676e6564204d6573736167653a0a333200000000600052601c52603c60002090565b92610888565b906115fc565b926102ec565b1490565b6102156002610535565b7f9b779b17422d0df92223018b32b4d1fa46e071723d6817e2486d003becc55f0061133a816103d0565b61134861116d610215611306565b14611362576101ff90600061135b611306565b9101610987565b604051633ee5aeb560e01b8152600490fd5b6102156001610535565b6101ff7f9b779b17422d0df92223018b32b4d1fa46e071723d6817e2486d003becc55f00600061135b611374565b6102ec6102156102159290565b610215906113ac565b6040513d6000823e3d90fd5b806113df6109f2610c4c60006113b9565b0361141a575060008080936113fc6113f78395610741565b610741565b828215611411575bf11561140c57565b6113c2565b506108fc611404565b916114276101ff93610741565b919091611657565b6113026301ffc9a760e01b610b2b565b1561144657565b60405162461bcd60e51b815260206004820152601460248201527310540c0c8e881a5b9d985b1a5908185b5bdd5b9d60621b6044820152606490fd5b90816114946109f2610c4c60006113b9565b036114af576101ff91506114a961116d349290565b1461143f565b6114bb6101ff92610741565b90336114c630610741565b91926116cb565b6101ff903390611705565b600080516020611a4e8339815191526114f4610a338484610c7b565b156115635761151990610a5c6000611511816001940186906103b9565b018590610c71565b90339061155061154a61154a7f2f8788117e7eff1d82e926ec794901d17c78024a50270940304540a733656f0d9590565b92610741565b9261155a60405190565b600090a4600190565b505050600090565b600080516020611a4e8339815191526115848383610c7b565b15611563576115a090610a5c60006115118180940186906103b9565b90339061155061154a61154a7ff6391f5c32d9c69d2a47ea670b442974b53935d1edc7fd64eb21e047a839171b9590565b6115d961173d565b6101ff6101ff611768565b6101ff6115d1565b6101ff61173d565b6101ff6115ec565b6102159161160991611770565b909291926117f7565b61162b6116256102159263ffffffff1690565b60e01b90565b6001600160e01b03191690565b9160206101ff9294936116536040820196600083019061030e565b0152565b6101ff9260049261169c9161168d9061167363a9059cbb611612565b9261167d60405190565b9687946020860190815201611638565b602082018103825203836107f5565b6118b1565b6040906116536101ff94969593966116c16060840198600085019061030e565b602083019061030e565b6101ff93600493919261169c92909161168d916116eb6323b872dd611612565b936116f560405190565b97889560208701908152016116a1565b90611713610a338284610c7b565b61171b575050565b61079661172760405190565b63e2517d3f60e01b815292839260048401611638565b611748610a3361193f565b61174e57565b604051631afcd79f60e31b8152600490fd5b61071c61173d565b6101ff611760565b909190825161178261116d6041610535565b036117b6576117af9192611794600090565b5060208101516060604083015192015160001a909192611998565b9192909190565b506117c160006113b9565b906117d46117cf6002945190565b610535565b91929190565b6004111561046957565b906101ff826117da565b61021590610535565b8061180b61180560006117e4565b916117e4565b03611814575050565b8061182261180560016117e4565b036118395760405163f645eedf60e01b8152600490fd5b8061184761180560026117e4565b0361187557610796611858836117ee565b60405163fce698f760e01b81529182916004830190815260200190565b61188261180560036117e4565b1461188a5750565b6107969061189760405190565b6335e2f38360e21b81529182916004830190815260200190565b9060006020916118bf600090565b50828151910182855af1156113c2573d600051906118e061116d6000610535565b0361192b57506118ef81610741565b3b6118fd61116d6000610535565b145b6119065750565b61191261079691610741565b604051635274afe760e01b815291829160048301610317565b61193861116d6001610535565b14156118ff565b6102157ff0c57e16840df040f15088dc2f81fe391c3923bec73e23a9662efc9c229c6a00610f81565b6116536101ff94611991606094989795611987608086019a6000870152565b60ff166020850152565b6040830152565b9293926119a4856117ee565b6119d061116d7f7fffffffffffffffffffffffffffffff5d576e7357a4501ddfe92f46681b20a0610535565b11611a3a5760405193946020946000946119ee929194859485611968565b838052039060015afa1561140c5760005180611a106109f2610c4c60006113b9565b14611a22576000916117d46000610535565b50611a2d60006113b9565b6001916117d46000610535565b505050611a4760006113b9565b9160039156fe02dd7bc7dec4dceedda775e58dd541e08a116c6c53815c0bd028192f7b626800a164736f6c6343000818000a",
  "devdoc": {
    "errors": {
      "AccessControlBadConfirmation()": [
        {
          "details": "The caller of a function is not the expected one. NOTE: Don't confuse with {AccessControlUnauthorizedAccount}."
        }
      ],
      "AccessControlUnauthorizedAccount(address,bytes32)": [
        {
          "details": "The `account` is missing a role."
        }
      ],
      "ECDSAInvalidSignature()": [
        {
          "details": "The signature derives the `address(0)`."
        }
      ],
      "ECDSAInvalidSignatureLength(uint256)": [
        {
          "details": "The signature has an invalid length."
        }
      ],
      "ECDSAInvalidSignatureS(bytes32)": [
        {
          "details": "The signature has an S value that is in the upper half order."
        }
      ],
      "InvalidInitialization()": [
        {
          "details": "The contract is already initialized."
        }
      ],
      "NotInitializing()": [
        {
          "details": "The contract is not initializing."
        }
      ],
      "ReentrancyGuardReentrantCall()": [
        {
          "details": "Unauthorized reentrant call."
        }
      ],
      "SafeERC20FailedOperation(address)": [
        {
          "details": "An operation with an ERC-20 token failed."
        }
      ]
    },
    "events": {
      "Initialized(uint64)": {
        "details": "Triggered when the contract has been initialized or reinitialized."
      },
      "RoleAdminChanged(bytes32,bytes32,bytes32)": {
        "details": "Emitted when `newAdminRole` is set as ``role``'s admin role, replacing `previousAdminRole` `DEFAULT_ADMIN_ROLE` is the starting admin for all roles, despite {RoleAdminChanged} not being emitted signaling this."
      },
      "RoleGranted(bytes32,address,address)": {
        "details": "Emitted when `account` is granted `role`. `sender` is the account that originated the contract call. This account bears the admin role (for the granted role). Expected in cases where the role was granted using the internal {AccessControl-_grantRole}."
      },
      "RoleRevoked(bytes32,address,address)": {
        "details": "Emitted when `account` is revoked `role`. `sender` is the account that originated the contract call:   - if using `revokeRole`, it is the admin role bearer   - if using `renounceRole`, it is the role bearer (i.e. `account`)"
      }
    },
    "kind": "dev",
    "methods": {
      "getRoleAdmin(bytes32)": {
        "details": "Returns the admin role that controls `role`. See {grantRole} and {revokeRole}. To change a role's admin, use {_setRoleAdmin}."
      },
      "grantRole(bytes32,address)": {
        "details": "Grants `role` to `account`. If `account` had not been already granted `role`, emits a {RoleGranted} event. Requirements: - the caller must have ``role``'s admin role. May emit a {RoleGranted} event."
      },
      "hasRole(bytes32,address)": {
        "details": "Returns `true` if `account` has been granted `role`."
      },
      "renounceRole(bytes32,address)": {
        "details": "Revokes `role` from the calling account. Roles are often managed via {grantRole} and {revokeRole}: this function's purpose is to provide a mechanism for accounts to lose their privileges if they are compromised (such as when a trusted device is misplaced). If the calling account had been revoked `role`, emits a {RoleRevoked} event. Requirements: - the caller must be `callerConfirmation`. May emit a {RoleRevoked} event."
      },
      "revokeRole(bytes32,address)": {
        "details": "Revokes `role` from `account`. If `account` had been granted `role`, emits a {RoleRevoked} event. Requirements: - the caller must have ``role``'s admin role. May emit a {RoleRevoked} event."
      },
      "supportsInterface(bytes4)": {
        "details": "See {IERC165-supportsInterface}."
      }
    },
    "version": 1
  },
  "userdoc": {
    "kind": "user",
    "methods": {},
    "version": 1
  },
  "storageLayout": {
    "storage": [
      {
        "astId": 6123,
        "contract": "contracts/AutoPayoutVault.sol:AutoPayoutVault",
        "label": "verifier",
        "offset": 0,
        "slot": "0",
        "type": "t_address"
      },
      {
        "astId": 6128,
        "contract": "contracts/AutoPayoutVault.sol:AutoPayoutVault",
        "label": "offers",
        "offset": 0,
        "slot": "1",
        "type": "t_mapping(t_bytes32,t_struct(Offer)6585_storage)"
      },
      {
        "astId": 6132,
        "contract": "contracts/AutoPayoutVault.sol:AutoPayoutVault",
        "label": "signatureUsed",
        "offset": 0,
        "slot": "2",
        "type": "t_mapping(t_bytes32,t_bool)"
      }
    ],
    "types": {
      "t_address": {
        "encoding": "inplace",
        "label": "address",
        "numberOfBytes": "20"
      },
      "t_bool": {
        "encoding": "inplace",
        "label": "bool",
        "numberOfBytes": "1"
      },
      "t_bytes32": {
        "encoding": "inplace",
        "label": "bytes32",
        "numberOfBytes": "32"
      },
      "t_enum(OfferStatus)6573": {
        "encoding": "inplace",
        "label": "enum IAutoPayoutVault.OfferStatus",
        "numberOfBytes": "1"
      },
      "t_mapping(t_bytes32,t_bool)": {
        "encoding": "mapping",
        "key": "t_bytes32",
        "label": "mapping(bytes32 => bool)",
        "numberOfBytes": "32",
        "value": "t_bool"
      },
      "t_mapping(t_bytes32,t_struct(Offer)6585_storage)": {
        "encoding": "mapping",
        "key": "t_bytes32",
        "label": "mapping(bytes32 => struct IAutoPayoutVault.Offer)",
        "numberOfBytes": "32",
        "value": "t_struct(Offer)6585_storage"
      },
      "t_struct(Offer)6585_storage": {
        "encoding": "inplace",
        "label": "struct IAutoPayoutVault.Offer",
        "members": [
          {
            "astId": 6575,
            "contract": "contracts/AutoPayoutVault.sol:AutoPayoutVault",
            "label": "id",
            "offset": 0,
            "slot": "0",
            "type": "t_bytes32"
          },
          {
            "astId": 6577,
            "contract": "contracts/AutoPayoutVault.sol:AutoPayoutVault",
            "label": "addr",
            "offset": 0,
            "slot": "1",
            "type": "t_address"
          },
          {
            "astId": 6579,
            "contract": "contracts/AutoPayoutVault.sol:AutoPayoutVault",
            "label": "token",
            "offset": 0,
            "slot": "2",
            "type": "t_address"
          },
          {
            "astId": 6581,
            "contract": "contracts/AutoPayoutVault.sol:AutoPayoutVault",
            "label": "balance",
            "offset": 0,
            "slot": "3",
            "type": "t_uint256"
          },
          {
            "astId": 6584,
            "contract": "contracts/AutoPayoutVault.sol:AutoPayoutVault",
            "label": "status",
            "offset": 0,
            "slot": "4",
            "type": "t_enum(OfferStatus)6573"
          }
        ],
        "numberOfBytes": "160"
      },
      "t_uint256": {
        "encoding": "inplace",
        "label": "uint256",
        "numberOfBytes": "32"
      }
    }
  }
}