{
  "address": "0xcd1d13E627a7aC7D0961E66bac310ea02687F045",
  "abi": [
    {
      "inputs": [],
      "name": "AccessControlBadConfirmation",
      "type": "error"
    },
    {
      "inputs": [
        {
          "internalType": "address",
          "name": "account",
          "type": "address"
        },
        {
          "internalType": "bytes32",
          "name": "neededRole",
          "type": "bytes32"
        }
      ],
      "name": "AccessControlUnauthorizedAccount",
      "type": "error"
    },
    {
      "inputs": [],
      "name": "InvalidInitialization",
      "type": "error"
    },
    {
      "inputs": [],
      "name": "NotInitializing",
      "type": "error"
    },
    {
      "inputs": [],
      "name": "ReentrancyGuardReentrantCall",
      "type": "error"
    },
    {
      "inputs": [
        {
          "internalType": "address",
          "name": "token",
          "type": "address"
        }
      ],
      "name": "SafeERC20FailedOperation",
      "type": "error"
    },
    {
      "anonymous": false,
      "inputs": [
        {
          "indexed": false,
          "internalType": "uint64",
          "name": "version",
          "type": "uint64"
        }
      ],
      "name": "Initialized",
      "type": "event"
    },
    {
      "anonymous": false,
      "inputs": [
        {
          "indexed": true,
          "internalType": "bytes32",
          "name": "id",
          "type": "bytes32"
        },
        {
          "indexed": true,
          "internalType": "uint256",
          "name": "particapantIndex",
          "type": "uint256"
        },
        {
          "indexed": true,
          "internalType": "address",
          "name": "addr",
          "type": "address"
        }
      ],
      "name": "OfferAccepted",
      "type": "event"
    },
    {
      "anonymous": false,
      "inputs": [
        {
          "indexed": true,
          "internalType": "bytes32",
          "name": "id",
          "type": "bytes32"
        },
        {
          "indexed": true,
          "internalType": "address",
          "name": "addr",
          "type": "address"
        },
        {
          "indexed": true,
          "internalType": "address",
          "name": "tokenPayout",
          "type": "address"
        },
        {
          "indexed": false,
          "internalType": "uint256",
          "name": "totalPayout",
          "type": "uint256"
        },
        {
          "indexed": false,
          "internalType": "uint256",
          "name": "minPayout",
          "type": "uint256"
        }
      ],
      "name": "OfferOpened",
      "type": "event"
    },
    {
      "anonymous": false,
      "inputs": [
        {
          "indexed": true,
          "internalType": "bytes32",
          "name": "id",
          "type": "bytes32"
        },
        {
          "indexed": false,
          "internalType": "uint256",
          "name": "extraPayout",
          "type": "uint256"
        }
      ],
      "name": "OfferUpgraded",
      "type": "event"
    },
    {
      "anonymous": false,
      "inputs": [
        {
          "indexed": true,
          "internalType": "bytes32",
          "name": "id",
          "type": "bytes32"
        },
        {
          "indexed": true,
          "internalType": "uint256",
          "name": "particapantIndex",
          "type": "uint256"
        },
        {
          "indexed": true,
          "internalType": "address",
          "name": "addr",
          "type": "address"
        },
        {
          "indexed": false,
          "internalType": "uint256",
          "name": "reward",
          "type": "uint256"
        }
      ],
      "name": "RewardClaimed",
      "type": "event"
    },
    {
      "anonymous": false,
      "inputs": [
        {
          "indexed": true,
          "internalType": "bytes32",
          "name": "id",
          "type": "bytes32"
        },
        {
          "indexed": true,
          "internalType": "uint256",
          "name": "particapantIndex",
          "type": "uint256"
        },
        {
          "indexed": false,
          "internalType": "uint256",
          "name": "reward",
          "type": "uint256"
        }
      ],
      "name": "RewardUpdated",
      "type": "event"
    },
    {
      "anonymous": false,
      "inputs": [
        {
          "indexed": true,
          "internalType": "bytes32",
          "name": "role",
          "type": "bytes32"
        },
        {
          "indexed": true,
          "internalType": "bytes32",
          "name": "previousAdminRole",
          "type": "bytes32"
        },
        {
          "indexed": true,
          "internalType": "bytes32",
          "name": "newAdminRole",
          "type": "bytes32"
        }
      ],
      "name": "RoleAdminChanged",
      "type": "event"
    },
    {
      "anonymous": false,
      "inputs": [
        {
          "indexed": true,
          "internalType": "bytes32",
          "name": "role",
          "type": "bytes32"
        },
        {
          "indexed": true,
          "internalType": "address",
          "name": "account",
          "type": "address"
        },
        {
          "indexed": true,
          "internalType": "address",
          "name": "sender",
          "type": "address"
        }
      ],
      "name": "RoleGranted",
      "type": "event"
    },
    {
      "anonymous": false,
      "inputs": [
        {
          "indexed": true,
          "internalType": "bytes32",
          "name": "role",
          "type": "bytes32"
        },
        {
          "indexed": true,
          "internalType": "address",
          "name": "account",
          "type": "address"
        },
        {
          "indexed": true,
          "internalType": "address",
          "name": "sender",
          "type": "address"
        }
      ],
      "name": "RoleRevoked",
      "type": "event"
    },
    {
      "inputs": [
        {
          "internalType": "bytes32[]",
          "name": "_id",
          "type": "bytes32[]"
        },
        {
          "internalType": "uint256[]",
          "name": "_index",
          "type": "uint256[]"
        },
        {
          "internalType": "uint256[]",
          "name": "_reward",
          "type": "uint256[]"
        }
      ],
      "name": "AddRewardParticapants",
      "outputs": [],
      "stateMutability": "nonpayable",
      "type": "function"
    },
    {
      "inputs": [],
      "name": "DEFAULT_ADMIN_ROLE",
      "outputs": [
        {
          "internalType": "bytes32",
          "name": "",
          "type": "bytes32"
        }
      ],
      "stateMutability": "view",
      "type": "function"
    },
    {
      "inputs": [],
      "name": "MANAGER_ROLE",
      "outputs": [
        {
          "internalType": "bytes32",
          "name": "",
          "type": "bytes32"
        }
      ],
      "stateMutability": "view",
      "type": "function"
    },
    {
      "inputs": [
        {
          "internalType": "bytes32",
          "name": "_id",
          "type": "bytes32"
        }
      ],
      "name": "acceptOffer",
      "outputs": [],
      "stateMutability": "nonpayable",
      "type": "function"
    },
    {
      "inputs": [
        {
          "internalType": "bytes32",
          "name": "_id",
          "type": "bytes32"
        }
      ],
      "name": "claimReward",
      "outputs": [],
      "stateMutability": "nonpayable",
      "type": "function"
    },
    {
      "inputs": [
        {
          "internalType": "bytes32",
          "name": "_id",
          "type": "bytes32"
        }
      ],
      "name": "closeOffer",
      "outputs": [],
      "stateMutability": "nonpayable",
      "type": "function"
    },
    {
      "inputs": [
        {
          "internalType": "bytes32",
          "name": "role",
          "type": "bytes32"
        }
      ],
      "name": "getRoleAdmin",
      "outputs": [
        {
          "internalType": "bytes32",
          "name": "",
          "type": "bytes32"
        }
      ],
      "stateMutability": "view",
      "type": "function"
    },
    {
      "inputs": [
        {
          "internalType": "bytes32",
          "name": "role",
          "type": "bytes32"
        },
        {
          "internalType": "address",
          "name": "account",
          "type": "address"
        }
      ],
      "name": "grantRole",
      "outputs": [],
      "stateMutability": "nonpayable",
      "type": "function"
    },
    {
      "inputs": [
        {
          "internalType": "bytes32",
          "name": "role",
          "type": "bytes32"
        },
        {
          "internalType": "address",
          "name": "account",
          "type": "address"
        }
      ],
      "name": "hasRole",
      "outputs": [
        {
          "internalType": "bool",
          "name": "",
          "type": "bool"
        }
      ],
      "stateMutability": "view",
      "type": "function"
    },
    {
      "inputs": [],
      "name": "initialize",
      "outputs": [],
      "stateMutability": "nonpayable",
      "type": "function"
    },
    {
      "inputs": [
        {
          "internalType": "bytes32",
          "name": "",
          "type": "bytes32"
        }
      ],
      "name": "offers",
      "outputs": [
        {
          "internalType": "bytes32",
          "name": "id",
          "type": "bytes32"
        },
        {
          "internalType": "address",
          "name": "addr",
          "type": "address"
        },
        {
          "internalType": "address",
          "name": "tokenPayout",
          "type": "address"
        },
        {
          "internalType": "uint256",
          "name": "totalPayout",
          "type": "uint256"
        },
        {
          "internalType": "uint256",
          "name": "minPayout",
          "type": "uint256"
        },
        {
          "internalType": "uint256",
          "name": "balance",
          "type": "uint256"
        },
        {
          "internalType": "uint256",
          "name": "particapantCounter",
          "type": "uint256"
        },
        {
          "internalType": "enum IAutoPayoutVault.OfferStatus",
          "name": "status",
          "type": "uint8"
        }
      ],
      "stateMutability": "view",
      "type": "function"
    },
    {
      "inputs": [
        {
          "internalType": "bytes32",
          "name": "_id",
          "type": "bytes32"
        },
        {
          "internalType": "address",
          "name": "_tokenPayout",
          "type": "address"
        },
        {
          "internalType": "uint256",
          "name": "_totalPayout",
          "type": "uint256"
        },
        {
          "internalType": "uint256",
          "name": "_minPayout",
          "type": "uint256"
        }
      ],
      "name": "openOffer",
      "outputs": [],
      "stateMutability": "nonpayable",
      "type": "function"
    },
    {
      "inputs": [
        {
          "internalType": "bytes32",
          "name": "",
          "type": "bytes32"
        },
        {
          "internalType": "uint256",
          "name": "",
          "type": "uint256"
        }
      ],
      "name": "particapants",
      "outputs": [
        {
          "internalType": "address",
          "name": "addr",
          "type": "address"
        },
        {
          "internalType": "uint256",
          "name": "reward",
          "type": "uint256"
        },
        {
          "internalType": "enum IAutoPayoutVault.ParticapantStatus",
          "name": "status",
          "type": "uint8"
        }
      ],
      "stateMutability": "view",
      "type": "function"
    },
    {
      "inputs": [
        {
          "internalType": "bytes32",
          "name": "role",
          "type": "bytes32"
        },
        {
          "internalType": "address",
          "name": "callerConfirmation",
          "type": "address"
        }
      ],
      "name": "renounceRole",
      "outputs": [],
      "stateMutability": "nonpayable",
      "type": "function"
    },
    {
      "inputs": [
        {
          "internalType": "bytes32",
          "name": "role",
          "type": "bytes32"
        },
        {
          "internalType": "address",
          "name": "account",
          "type": "address"
        }
      ],
      "name": "revokeRole",
      "outputs": [],
      "stateMutability": "nonpayable",
      "type": "function"
    },
    {
      "inputs": [
        {
          "internalType": "bytes4",
          "name": "interfaceId",
          "type": "bytes4"
        }
      ],
      "name": "supportsInterface",
      "outputs": [
        {
          "internalType": "bool",
          "name": "",
          "type": "bool"
        }
      ],
      "stateMutability": "view",
      "type": "function"
    },
    {
      "inputs": [
        {
          "internalType": "bytes32",
          "name": "_id",
          "type": "bytes32"
        },
        {
          "internalType": "uint256",
          "name": "_extraPayout",
          "type": "uint256"
        }
      ],
      "name": "upgradeOffer",
      "outputs": [],
      "stateMutability": "nonpayable",
      "type": "function"
    }
  ],
  "transactionHash": "0x274f84d81350340a669fefe986ba9cdc505b6fe2a7689e802193d8d8da99ad1a",
  "args": [],
  "numDeployments": 1,
  "solcInputHash": "9423370b663f0cc7d4ed565d98fbf4e6",
  "bytecode": "0x60a06040523461005a576100327f241ecf16d79d0f8dbfb92cbc07fe17840425976cf0667f022fe9877caa831b08608052565b604051611b9161006082396080518181816106d101528181610d440152610f4b0152611b9190f35b600080fdfe6080604052600436101561001257600080fd5b60003560e01c806301ffc9a7146101225780630ae9b5781461011d57806312c961d514610118578063248a9ca3146101135780632f2ff15d1461010e57806336568abe14610109578063474d3ff0146101045780638129fc1c146100ff57806391d14854146100fa5780639cc2f88c146100f5578063a217fddf146100f0578063a29765a1146100eb578063aabb22c1146100e6578063b596a15e146100e1578063d547741f146100dc578063ec87621c146100d75763f54140230361013a576106f5565b6106bc565b6106a3565b61068b565b61066c565b6105a1565b6104f7565b6104c0565b6104a4565b61048c565b61044a565b6102ea565b6102d1565b610282565b610255565b610211565b610169565b6001600160e01b031981165b0361013a57565b600080fd5b9050359061014c82610127565b565b9060208282031261013a576101629161013f565b90565b9052565b3461013a5761019661018461017f36600461014e565b61070d565b60405191829182901515815260200190565b0390f35b80610133565b9050359061014c8261019a565b6001600160a01b031690565b6001600160a01b038116610133565b9050359061014c826101b9565b60808183031261013a576101e982826101a0565b926101626101fa84602085016101c8565b9361020881604086016101a0565b936060016101a0565b3461013a5761022d6102243660046101d5565b92919091610846565b604051005b919060408382031261013a576101629061024c81856101a0565b936020016101a0565b3461013a5761022d610268366004610232565b906109bc565b9060208282031261013a57610162916101a0565b3461013a5761019661029d61029836600461026e565b610a76565b6040515b9182918290815260200190565b919060408382031261013a57610162906102c881856101a0565b936020016101c8565b3461013a5761022d6102e43660046102ae565b90610ac9565b3461013a5761022d6102fd3660046102ae565b90610ad3565b905b600052602052604060002090565b6101629081565b6101629054610313565b610162905b60ff1690565b6101629054610324565b610344906000610303565b9061034e8261031a565b9161036360018201546001600160a01b031690565b9161037860028301546001600160a01b031690565b916103856003820161031a565b916103926004830161031a565b9161039f6005820161031a565b9161016260076103b16006850161031a565b930161032f565b634e487b7160e01b600052602160045260246000fd5b600311156103d857565b6103b8565b9061014c826103ce565b610162906103dd565b610165906103e7565b9081526001600160a01b039091166020820152610100810197969590949093909290916001600160a01b031660408601526060850152608084015260a083015260c082015260e00161014c916103f0565b3461013a5761019661046561046036600461026e565b610339565b9461047898969894919493929360405190565b988998896103f9565b600091031261013a57565b3461013a5761049c366004610481565b61022d610d68565b3461013a576101966101846104ba3660046102ae565b90610d7a565b3461013a5761022d6104d336600461026e565b610e3a565b6101626101626101629290565b61016260006104d8565b6101626104e5565b3461013a57610507366004610481565b61019661029d6104ef565b90610305906104d8565b9061052b610530926001610303565b610512565b80546001600160a01b03169161016260026103b16001850161031a565b600411156103d857565b9061014c8261054d565b61016290610557565b61016590610561565b6001600160a01b03909116815260608101939261014c92909160409161059a906020830152565b019061056a565b3461013a576101966105bd6105b7366004610232565b9061051c565b60405191939193849384610573565b909182601f8301121561013a5781359167ffffffffffffffff831161013a57602001926020830284011161013a57565b9060608282031261013a57813567ffffffffffffffff811161013a57816106249184016105cc565b929093602082013567ffffffffffffffff811161013a57836106479184016105cc565b929093604082013567ffffffffffffffff811161013a5761066892016105cc565b9091565b3461013a5761022d61067f3660046105fc565b94939093929192610f3d565b3461013a5761022d61069e36600461026e565b611172565b3461013a5761022d6106b63660046102ae565b9061134c565b3461013a576106cc366004610481565b6101967f000000000000000000000000000000000000000000000000000000000000000061029d565b3461013a5761022d61070836600461026e565b6113e5565b80610728637965db0b60e01b5b916001600160e01b03191690565b14908115610734575090565b6101629150611515565b1561074557565b60405162461bcd60e51b815260206004820152601a60248201527f415030313a206f6666657220616c7265616479206578697374730000000000006044820152606490fd5b0390fd5b90600019905b9181191691161790565b906107ac6101626107b39290565b825461078e565b9055565b906001600160a01b0390610794565b610162906101ad906001600160a01b031682565b610162906107c6565b610162906107da565b906107fc6101626107b3926107e3565b82546107b7565b906107ac6101626107b3926104d8565b9060ff90610794565b9061082c6101626107b3926103e7565b8254610813565b90815260408101929161014c9160200152565b6108f5610857610162836000610303565b61087f6108666007830161032f565b61087961087360006103dd565b916103dd565b1461073e565b6108898585611582565b610893838261079e565b6108a033600183016107ec565b6108ad84600283016107ec565b6108ba8560038301610803565b6108c78660048301610803565b6108d48560058301610803565b6108ea6108e160006104d8565b60068301610803565b60076001910161081c565b3391929361092d6109276109277fd6111bcd4310914ad2151ee16ca408a5bc1ebcdec3a8b839e41fd706b70348fa9490565b946107e3565b9461094361093a60405190565b92839283610833565b0390a4565b1561094f57565b60405162461bcd60e51b815260206004820152601760248201527f415030333a206f66666572206973206e6f74206f70656e0000000000000000006044820152606490fd5b634e487b7160e01b600052601160045260246000fd5b919082018092116109b757565b610994565b610a3c6109cd610162836000610303565b6109ef6109dc6007830161032f565b6109e961087360016103dd565b14610948565b610a0d610a0660028301546001600160a01b031690565b8590611582565b610a2c60038201610a2686610a218361031a565b6109aa565b90610803565b600501610a2684610a218361031a565b610a71610a677fa9beb7e55f1bfe250de500d9d2a335083cf75a8983506f4fa6a80375e861f0739290565b926102a160405190565b0390a2565b6001610aa061016292610a87600090565b506000600080516020611b658339815191525b01610303565b0161031a565b9061014c91610abc610ab782610a76565b6115cd565b90610ac6916115e8565b50565b9061014c91610aa6565b9080610aee610ae1336101ad565b916001600160a01b031690565b03610afc57610ac69161167a565b60405163334bd91960e11b8152600490fd5b6101629060401c610329565b6101629054610b0e565b610162905b67ffffffffffffffff1690565b6101629054610b24565b610b296101626101629290565b9067ffffffffffffffff90610794565b610b296101626101629267ffffffffffffffff1690565b90610b846101626107b392610b5d565b8254610b4d565b9068ff00000000000000009060401b610794565b90610baf6101626107b392151590565b8254610b8b565b61016590610b40565b60208101929161014c9190610bb6565b7ff0c57e16840df040f15088dc2f81fe391c3923bec73e23a9662efc9c229c6a00610c00610bfc82610b1a565b1590565b610c0982610b36565b80610c25610c176000610b40565b9167ffffffffffffffff1690565b1480610d14575b90610c3a610c176001610b40565b1480610ced575b90155b9081610ce4575b50610cd257610c63610c5d6001610b40565b83610b74565b80610cc2575b610c71610d1b565b610c785750565b610c8490600090610b9f565b6001610cbd7fc7f505b2f371ae2175ee4913f4499e1f2633a7b5936321eed1cdaeb6115181d291610cb460405190565b91829182610bbf565b0390a1565b610ccd600183610b9f565b610c69565b60405163f92ee8a960e01b8152600490fd5b15905038610c4b565b50610c44610cfa306107e3565b3b610d0c610d0860006104d8565b9190565b149050610c41565b5081610c2c565b610d236116f3565b610d2b611703565b610d3d610d366104e5565b33906115e8565b50610ac6337f00000000000000000000000000000000000000000000000000000000000000006115e8565b61014c610bcf565b90610305906107e3565b610162916000610da5610dab93610d8f600090565b5082600080516020611b65833981519152610a9a565b01610d70565b61032f565b15610db757565b60405162461bcd60e51b815260206004820152601760248201527f415030373a206f66666572206973206e6f74206f70656e0000000000000000006044820152606490fd5b15610e0357565b60405162461bcd60e51b815260206004820152600f60248201526e20a818981d103737ba1037bbb732b960891b6044820152606490fd5b610e4b61016261014c926000610303565b610e6d610e5a6007830161032f565b610e6761087360016103dd565b14610db0565b610e93610e8460018301546001600160a01b031690565b610e8d33610ae1565b14610dfc565b610ebd610eaa60028301546001600160a01b031690565b33610eb76005850161031a565b91611717565b60076002910161081c565b15610ecf57565b60405162461bcd60e51b815260206004820152601160248201527020a8181b1d103737ba1036b0b730b3b2b960791b6044820152606490fd5b634e487b7160e01b600052603260045260246000fd5b9190811015610f2e576020020190565b610f08565b356101628161019a565b9195949291610f74610f6f337f0000000000000000000000000000000000000000000000000000000000000000610d7a565b610ec8565b610f7e60006104d8565b80610f8884610d08565b1015610fd557610fd090610fca610fa8610fa3838787610f1e565b610f33565b610fb6610fa384898e610f1e565b610fc4610fa3858b8d610f1e565b91611807565b60010190565b610f7e565b5050505050509050565b15610fe657565b60405162461bcd60e51b815260206004820152601660248201527510540c0d0e88185b1c9958591e481858d8d95c1d195960521b6044820152606490fd5b818102929181159184041417156109b757565b1561103e57565b60405162461bcd60e51b815260206004820152601760248201527f415030353a2066756c6c207061727469636170616e74730000000000000000006044820152606490fd5b634e487b7160e01b600052604160045260246000fd5b90601f01601f1916810190811067ffffffffffffffff8211176110bb57604052565b611083565b9061014c6110cd60405190565b9283611099565b61016260606110c0565b9061016590610557565b6101629051610557565b9061082c6101626107b392610561565b61014c91906111469060409060029061112c8161112687516001600160a01b031690565b906107ec565b61113e60018201610a26602088015190565b0192016110e8565b906110f2565b9061014c91611102565b60001981146109b75760010190565b919082039182116109b757565b90611181610162836000610303565b906111916109dc6007840161032f565b61119b60006104d8565b806111ae610d086101626006870161031a565b10156111f8576111f390610fca6111e360006111d56111ce896001610303565b8590610512565b01546001600160a01b031690565b6111ec33610ae1565b1415610fdf565b61119b565b50916112d460066112e4926112526112126003870161031a565b61124b610d0861016261122760048b0161031a565b611245611235898d0161031a565b61123f60016104d8565b906109aa565b90611024565b1015611037565b6112b6336112926001611289611282600061127d61126e6110d4565b6001600160a01b039097168752565b6104d8565b6020850152565b604083016110de565b6112b16112a0846001610303565b6112ab868a0161031a565b90610512565b61114c565b6112cd828601610a266112c88261031a565b611156565b930161031a565b6112de60016104d8565b90611165565b339061132061131a6113147fb33b2c1237dfb2552a9683de51dc3175f83c108596cf71b7f1d0dff9652f05959590565b926104d8565b926107e3565b9261132a60405190565b8080610943565b9061014c91611342610ab782610a76565b90610ac69161167a565b9061014c91611331565b1561135d57565b60405162461bcd60e51b815260206004820152601960248201527f415031313a206e6f7420616363657074656420737461747573000000000000006044820152606490fd5b156113a957565b60405162461bcd60e51b8152602060048201526014602482015273415031323a20726577617264206973207a65726f60601b6044820152606490fd5b6113f3610162826000610303565b6113fd60006104d8565b80611410610d086101626006860161031a565b10156115105761142e610162611427856001610303565b8390610512565b80546001600160a01b031661144233610ae1565b1461145057506001016113fd565b916114a660026114b39261148461146b83889997990161032f565b61147e6114786001610557565b91610557565b14611356565b6111d56114936001880161031a565b6114a0610d0860006104d8565b116113a2565b33610eb76001860161031a565b6114c060028084016110f2565b916114ce600133930161031a565b926109436115066109276115007fea05f852fc37f67419e151136bc6f59b47af09ce8a30091acaddc0fc864c96379490565b946104d8565b946102a160405190565b505050565b6115256301ffc9a760e01b61071a565b1490565b6101ad6101626101629290565b61016290611529565b1561154657565b60405162461bcd60e51b815260206004820152601460248201527310540c0c8e881a5b9d985b1a5908185b5bdd5b9d60621b6044820152606490fd5b9081611594610ae16101ad6000611536565b036115af5761014c91506115a9610d08349290565b1461153f565b6115bb61014c926107e3565b90336115c6306107e3565b9192611953565b61014c9033906119be565b9061082c6101626107b392151590565b600080516020611b65833981519152611604610bfc8484610d7a565b156116725761162e90611629600061162181600194018690610303565b018590610d70565b6115d8565b90339061165f61131a61131a7f2f8788117e7eff1d82e926ec794901d17c78024a50270940304540a733656f0d9590565b9261166960405190565b600090a4600190565b505050600090565b600080516020611b658339815191526116938383610d7a565b15611672576116af906116296000611621818094018690610303565b90339061165f61131a61131a7ff6391f5c32d9c69d2a47ea670b442974b53935d1edc7fd64eb21e047a839171b9590565b6116e86119f6565b61014c61014c611a61565b61014c6116e0565b61014c6119f6565b61014c6116fb565b6040513d6000823e3d90fd5b80611728610ae16101ad6000611536565b036117635750600080809361174561174083956107e3565b6107e3565b82821561175a575bf11561175557565b61170b565b506108fc61174d565b9161177061014c936107e3565b919091611a69565b1561177f57565b60405162461bcd60e51b815260206004820152601960248201527f415030383a206e6f7420616363657074656420737461747573000000000000006044820152606490fd5b156117cb57565b60405162461bcd60e51b815260206004820152601460248201527310540c0e4e881a5b9d985b1a59081c995dd85c9960621b6044820152606490fd5b90919061189b61181b610162836000610303565b61182a610e5a6007830161032f565b61186061184d6002611847611840876001610303565b8990610512565b0161032f565b61185a6114786001610557565b14611778565b61187d84611876610d086101626004860161031a565b11156117c4565b600561189461188d82840161031a565b8690611165565b9101610803565b6118c382610a2660016118b86118b18683610303565b8890610512565b0191610a218361031a565b9190916119046118fa6118f47f3b31812956b151411ca77ec726775dadbebe9a926a3726e440a0ace54a5996de9390565b936104d8565b936102a160405190565b0390a3565b61192261191c6101629263ffffffff1690565b60e01b90565b6001600160e01b03191690565b6001600160a01b0391821681529116602082015260608101929161014c9160400152565b61014c93600493919261199c92909161198d916119736323b872dd611909565b9361197d60405190565b978895602087019081520161192f565b60208201810382520383611099565b611a9f565b6001600160a01b03909116815260408101929161014c9160200152565b906119cc610bfc8284610d7a565b6119d4575050565b61078a6119e060405190565b63e2517d3f60e01b8152928392600484016119a1565b611a01610bfc611b3b565b611a0757565b604051631afcd79f60e31b8152600490fd5b611a216119f6565b61014c611a33565b61016260016104d8565b61014c7f9b779b17422d0df92223018b32b4d1fa46e071723d6817e2486d003becc55f006000611894611a29565b61014c611a19565b61014c9260049261199c9161198d90611a8563a9059cbb611909565b92611a8f60405190565b96879460208601908152016119a1565b906000602091611aad600090565b50828151910182855af11561170b573d60005190611ace610d0860006104d8565b03611b275750611add816107e3565b3b611aeb610d0860006104d8565b145b611af45750565b611b0061078a916107e3565b604051635274afe760e01b8152918291600483016001600160a01b03909116815260200190565b611b34610d0860016104d8565b1415611aed565b6101627ff0c57e16840df040f15088dc2f81fe391c3923bec73e23a9662efc9c229c6a00610b1a56fe02dd7bc7dec4dceedda775e58dd541e08a116c6c53815c0bd028192f7b626800a164736f6c6343000818000a",
  "devdoc": {
    "errors": {
      "AccessControlBadConfirmation()": [
        {
          "details": "The caller of a function is not the expected one. NOTE: Don't confuse with {AccessControlUnauthorizedAccount}."
        }
      ],
      "AccessControlUnauthorizedAccount(address,bytes32)": [
        {
          "details": "The `account` is missing a role."
        }
      ],
      "InvalidInitialization()": [
        {
          "details": "The contract is already initialized."
        }
      ],
      "NotInitializing()": [
        {
          "details": "The contract is not initializing."
        }
      ],
      "ReentrancyGuardReentrantCall()": [
        {
          "details": "Unauthorized reentrant call."
        }
      ],
      "SafeERC20FailedOperation(address)": [
        {
          "details": "An operation with an ERC-20 token failed."
        }
      ]
    },
    "events": {
      "Initialized(uint64)": {
        "details": "Triggered when the contract has been initialized or reinitialized."
      },
      "RoleAdminChanged(bytes32,bytes32,bytes32)": {
        "details": "Emitted when `newAdminRole` is set as ``role``'s admin role, replacing `previousAdminRole` `DEFAULT_ADMIN_ROLE` is the starting admin for all roles, despite {RoleAdminChanged} not being emitted signaling this."
      },
      "RoleGranted(bytes32,address,address)": {
        "details": "Emitted when `account` is granted `role`. `sender` is the account that originated the contract call. This account bears the admin role (for the granted role). Expected in cases where the role was granted using the internal {AccessControl-_grantRole}."
      },
      "RoleRevoked(bytes32,address,address)": {
        "details": "Emitted when `account` is revoked `role`. `sender` is the account that originated the contract call:   - if using `revokeRole`, it is the admin role bearer   - if using `renounceRole`, it is the role bearer (i.e. `account`)"
      }
    },
    "kind": "dev",
    "methods": {
      "getRoleAdmin(bytes32)": {
        "details": "Returns the admin role that controls `role`. See {grantRole} and {revokeRole}. To change a role's admin, use {_setRoleAdmin}."
      },
      "grantRole(bytes32,address)": {
        "details": "Grants `role` to `account`. If `account` had not been already granted `role`, emits a {RoleGranted} event. Requirements: - the caller must have ``role``'s admin role. May emit a {RoleGranted} event."
      },
      "hasRole(bytes32,address)": {
        "details": "Returns `true` if `account` has been granted `role`."
      },
      "renounceRole(bytes32,address)": {
        "details": "Revokes `role` from the calling account. Roles are often managed via {grantRole} and {revokeRole}: this function's purpose is to provide a mechanism for accounts to lose their privileges if they are compromised (such as when a trusted device is misplaced). If the calling account had been revoked `role`, emits a {RoleRevoked} event. Requirements: - the caller must be `callerConfirmation`. May emit a {RoleRevoked} event."
      },
      "revokeRole(bytes32,address)": {
        "details": "Revokes `role` from `account`. If `account` had been granted `role`, emits a {RoleRevoked} event. Requirements: - the caller must have ``role``'s admin role. May emit a {RoleRevoked} event."
      },
      "supportsInterface(bytes4)": {
        "details": "See {IERC165-supportsInterface}."
      }
    },
    "version": 1
  },
  "userdoc": {
    "kind": "user",
    "methods": {},
    "version": 1
  },
  "storageLayout": {
    "storage": [
      {
        "astId": 1813,
        "contract": "contracts/AutoPayoutVault.sol:AutoPayoutVault",
        "label": "offers",
        "offset": 0,
        "slot": "0",
        "type": "t_mapping(t_bytes32,t_struct(Offer)2437_storage)"
      },
      {
        "astId": 1820,
        "contract": "contracts/AutoPayoutVault.sol:AutoPayoutVault",
        "label": "particapants",
        "offset": 0,
        "slot": "1",
        "type": "t_mapping(t_bytes32,t_mapping(t_uint256,t_struct(Particapant)2419_storage))"
      }
    ],
    "types": {
      "t_address": {
        "encoding": "inplace",
        "label": "address",
        "numberOfBytes": "20"
      },
      "t_bytes32": {
        "encoding": "inplace",
        "label": "bytes32",
        "numberOfBytes": "32"
      },
      "t_enum(OfferStatus)2406": {
        "encoding": "inplace",
        "label": "enum IAutoPayoutVault.OfferStatus",
        "numberOfBytes": "1"
      },
      "t_enum(ParticapantStatus)2411": {
        "encoding": "inplace",
        "label": "enum IAutoPayoutVault.ParticapantStatus",
        "numberOfBytes": "1"
      },
      "t_mapping(t_bytes32,t_mapping(t_uint256,t_struct(Particapant)2419_storage))": {
        "encoding": "mapping",
        "key": "t_bytes32",
        "label": "mapping(bytes32 => mapping(uint256 => struct IAutoPayoutVault.Particapant))",
        "numberOfBytes": "32",
        "value": "t_mapping(t_uint256,t_struct(Particapant)2419_storage)"
      },
      "t_mapping(t_bytes32,t_struct(Offer)2437_storage)": {
        "encoding": "mapping",
        "key": "t_bytes32",
        "label": "mapping(bytes32 => struct IAutoPayoutVault.Offer)",
        "numberOfBytes": "32",
        "value": "t_struct(Offer)2437_storage"
      },
      "t_mapping(t_uint256,t_struct(Particapant)2419_storage)": {
        "encoding": "mapping",
        "key": "t_uint256",
        "label": "mapping(uint256 => struct IAutoPayoutVault.Particapant)",
        "numberOfBytes": "32",
        "value": "t_struct(Particapant)2419_storage"
      },
      "t_struct(Offer)2437_storage": {
        "encoding": "inplace",
        "label": "struct IAutoPayoutVault.Offer",
        "members": [
          {
            "astId": 2421,
            "contract": "contracts/AutoPayoutVault.sol:AutoPayoutVault",
            "label": "id",
            "offset": 0,
            "slot": "0",
            "type": "t_bytes32"
          },
          {
            "astId": 2423,
            "contract": "contracts/AutoPayoutVault.sol:AutoPayoutVault",
            "label": "addr",
            "offset": 0,
            "slot": "1",
            "type": "t_address"
          },
          {
            "astId": 2425,
            "contract": "contracts/AutoPayoutVault.sol:AutoPayoutVault",
            "label": "tokenPayout",
            "offset": 0,
            "slot": "2",
            "type": "t_address"
          },
          {
            "astId": 2427,
            "contract": "contracts/AutoPayoutVault.sol:AutoPayoutVault",
            "label": "totalPayout",
            "offset": 0,
            "slot": "3",
            "type": "t_uint256"
          },
          {
            "astId": 2429,
            "contract": "contracts/AutoPayoutVault.sol:AutoPayoutVault",
            "label": "minPayout",
            "offset": 0,
            "slot": "4",
            "type": "t_uint256"
          },
          {
            "astId": 2431,
            "contract": "contracts/AutoPayoutVault.sol:AutoPayoutVault",
            "label": "balance",
            "offset": 0,
            "slot": "5",
            "type": "t_uint256"
          },
          {
            "astId": 2433,
            "contract": "contracts/AutoPayoutVault.sol:AutoPayoutVault",
            "label": "particapantCounter",
            "offset": 0,
            "slot": "6",
            "type": "t_uint256"
          },
          {
            "astId": 2436,
            "contract": "contracts/AutoPayoutVault.sol:AutoPayoutVault",
            "label": "status",
            "offset": 0,
            "slot": "7",
            "type": "t_enum(OfferStatus)2406"
          }
        ],
        "numberOfBytes": "256"
      },
      "t_struct(Particapant)2419_storage": {
        "encoding": "inplace",
        "label": "struct IAutoPayoutVault.Particapant",
        "members": [
          {
            "astId": 2413,
            "contract": "contracts/AutoPayoutVault.sol:AutoPayoutVault",
            "label": "addr",
            "offset": 0,
            "slot": "0",
            "type": "t_address"
          },
          {
            "astId": 2415,
            "contract": "contracts/AutoPayoutVault.sol:AutoPayoutVault",
            "label": "reward",
            "offset": 0,
            "slot": "1",
            "type": "t_uint256"
          },
          {
            "astId": 2418,
            "contract": "contracts/AutoPayoutVault.sol:AutoPayoutVault",
            "label": "status",
            "offset": 0,
            "slot": "2",
            "type": "t_enum(ParticapantStatus)2411"
          }
        ],
        "numberOfBytes": "96"
      },
      "t_uint256": {
        "encoding": "inplace",
        "label": "uint256",
        "numberOfBytes": "32"
      }
    }
  }
}